{
  "contractName": "Org",
  "abi": [
    {
      "inputs": [
        {
          "internalType": "string",
          "name": "name",
          "type": "string"
        },
        {
          "internalType": "string",
          "name": "addr",
          "type": "string"
        },
        {
          "internalType": "string",
          "name": "email",
          "type": "string"
        },
        {
          "internalType": "string",
          "name": "con",
          "type": "string"
        },
        {
          "internalType": "string",
          "name": "typ",
          "type": "string"
        }
      ],
      "stateMutability": "nonpayable",
      "type": "constructor"
    },
    {
      "anonymous": false,
      "inputs": [
        {
          "components": [
            {
              "internalType": "string",
              "name": "orgname",
              "type": "string"
            },
            {
              "internalType": "string",
              "name": "pid",
              "type": "string"
            },
            {
              "internalType": "string",
              "name": "patient_name",
              "type": "string"
            },
            {
              "internalType": "string",
              "name": "addr",
              "type": "string"
            },
            {
              "internalType": "uint256",
              "name": "age",
              "type": "uint256"
            },
            {
              "internalType": "uint256",
              "name": "mobno",
              "type": "uint256"
            },
            {
              "internalType": "string",
              "name": "email",
              "type": "string"
            },
            {
              "internalType": "uint256",
              "name": "report_date",
              "type": "uint256"
            },
            {
              "internalType": "string",
              "name": "test_name",
              "type": "string"
            },
            {
              "internalType": "string",
              "name": "description",
              "type": "string"
            }
          ],
          "indexed": false,
          "internalType": "struct Org.Patient",
          "name": "_patient",
          "type": "tuple"
        }
      ],
      "name": "AddPatient",
      "type": "event"
    },
    {
      "anonymous": false,
      "inputs": [
        {
          "components": [
            {
              "internalType": "address",
              "name": "id",
              "type": "address"
            },
            {
              "internalType": "string",
              "name": "name",
              "type": "string"
            },
            {
              "internalType": "string",
              "name": "addr",
              "type": "string"
            },
            {
              "internalType": "string",
              "name": "email",
              "type": "string"
            },
            {
              "internalType": "string",
              "name": "con",
              "type": "string"
            },
            {
              "internalType": "string",
              "name": "typ",
              "type": "string"
            },
            {
              "internalType": "string",
              "name": "role",
              "type": "string"
            },
            {
              "internalType": "bool",
              "name": "verified",
              "type": "bool"
            }
          ],
          "indexed": false,
          "internalType": "struct Org.Organization",
          "name": "_org",
          "type": "tuple"
        }
      ],
      "name": "Register",
      "type": "event"
    },
    {
      "anonymous": false,
      "inputs": [
        {
          "indexed": false,
          "internalType": "string",
          "name": "_message",
          "type": "string"
        }
      ],
      "name": "VerifyOrganization",
      "type": "event"
    },
    {
      "inputs": [
        {
          "internalType": "uint256",
          "name": "",
          "type": "uint256"
        }
      ],
      "name": "patients",
      "outputs": [
        {
          "internalType": "string",
          "name": "orgname",
          "type": "string"
        },
        {
          "internalType": "string",
          "name": "pid",
          "type": "string"
        },
        {
          "internalType": "string",
          "name": "patient_name",
          "type": "string"
        },
        {
          "internalType": "string",
          "name": "addr",
          "type": "string"
        },
        {
          "internalType": "uint256",
          "name": "age",
          "type": "uint256"
        },
        {
          "internalType": "uint256",
          "name": "mobno",
          "type": "uint256"
        },
        {
          "internalType": "string",
          "name": "email",
          "type": "string"
        },
        {
          "internalType": "uint256",
          "name": "report_date",
          "type": "uint256"
        },
        {
          "internalType": "string",
          "name": "test_name",
          "type": "string"
        },
        {
          "internalType": "string",
          "name": "description",
          "type": "string"
        }
      ],
      "stateMutability": "view",
      "type": "function",
      "constant": true
    },
    {
      "inputs": [
        {
          "internalType": "string",
          "name": "orgname",
          "type": "string"
        },
        {
          "internalType": "string",
          "name": "pid",
          "type": "string"
        },
        {
          "internalType": "string",
          "name": "patient_name",
          "type": "string"
        },
        {
          "internalType": "string",
          "name": "addr",
          "type": "string"
        },
        {
          "internalType": "uint256",
          "name": "age",
          "type": "uint256"
        },
        {
          "internalType": "uint256",
          "name": "mobno",
          "type": "uint256"
        },
        {
          "internalType": "string",
          "name": "email",
          "type": "string"
        },
        {
          "internalType": "uint256",
          "name": "report_date",
          "type": "uint256"
        },
        {
          "internalType": "string",
          "name": "test_name",
          "type": "string"
        },
        {
          "internalType": "string",
          "name": "description",
          "type": "string"
        }
      ],
      "name": "addPatient",
      "outputs": [],
      "stateMutability": "nonpayable",
      "type": "function"
    },
    {
      "inputs": [
        {
          "internalType": "string",
          "name": "name",
          "type": "string"
        },
        {
          "internalType": "string",
          "name": "addr",
          "type": "string"
        },
        {
          "internalType": "string",
          "name": "email",
          "type": "string"
        },
        {
          "internalType": "string",
          "name": "con",
          "type": "string"
        },
        {
          "internalType": "string",
          "name": "typ",
          "type": "string"
        }
      ],
      "name": "register",
      "outputs": [],
      "stateMutability": "nonpayable",
      "type": "function"
    },
    {
      "inputs": [],
      "name": "getOrg",
      "outputs": [
        {
          "components": [
            {
              "internalType": "address",
              "name": "id",
              "type": "address"
            },
            {
              "internalType": "string",
              "name": "name",
              "type": "string"
            },
            {
              "internalType": "string",
              "name": "addr",
              "type": "string"
            },
            {
              "internalType": "string",
              "name": "email",
              "type": "string"
            },
            {
              "internalType": "string",
              "name": "con",
              "type": "string"
            },
            {
              "internalType": "string",
              "name": "typ",
              "type": "string"
            },
            {
              "internalType": "string",
              "name": "role",
              "type": "string"
            },
            {
              "internalType": "bool",
              "name": "verified",
              "type": "bool"
            }
          ],
          "internalType": "struct Org.Organization",
          "name": "",
          "type": "tuple"
        }
      ],
      "stateMutability": "view",
      "type": "function",
      "constant": true
    },
    {
      "inputs": [],
      "name": "getUnverifiedOrganization",
      "outputs": [
        {
          "components": [
            {
              "internalType": "address",
              "name": "id",
              "type": "address"
            },
            {
              "internalType": "string",
              "name": "name",
              "type": "string"
            },
            {
              "internalType": "string",
              "name": "addr",
              "type": "string"
            },
            {
              "internalType": "string",
              "name": "email",
              "type": "string"
            },
            {
              "internalType": "string",
              "name": "con",
              "type": "string"
            },
            {
              "internalType": "string",
              "name": "typ",
              "type": "string"
            },
            {
              "internalType": "string",
              "name": "role",
              "type": "string"
            },
            {
              "internalType": "bool",
              "name": "verified",
              "type": "bool"
            }
          ],
          "internalType": "struct Org.Organization[]",
          "name": "",
          "type": "tuple[]"
        }
      ],
      "stateMutability": "view",
      "type": "function",
      "constant": true
    },
    {
      "inputs": [
        {
          "internalType": "address",
          "name": "_address",
          "type": "address"
        }
      ],
      "name": "verifyOrganization",
      "outputs": [],
      "stateMutability": "nonpayable",
      "type": "function"
    },
    {
      "inputs": [
        {
          "internalType": "address",
          "name": "_address",
          "type": "address"
        }
      ],
      "name": "rejectOrganization",
      "outputs": [],
      "stateMutability": "nonpayable",
      "type": "function"
    },
    {
      "inputs": [],
      "name": "getVerifiedOrganization",
      "outputs": [
        {
          "components": [
            {
              "internalType": "address",
              "name": "id",
              "type": "address"
            },
            {
              "internalType": "string",
              "name": "name",
              "type": "string"
            },
            {
              "internalType": "string",
              "name": "addr",
              "type": "string"
            },
            {
              "internalType": "string",
              "name": "email",
              "type": "string"
            },
            {
              "internalType": "string",
              "name": "con",
              "type": "string"
            },
            {
              "internalType": "string",
              "name": "typ",
              "type": "string"
            },
            {
              "internalType": "string",
              "name": "role",
              "type": "string"
            },
            {
              "internalType": "bool",
              "name": "verified",
              "type": "bool"
            }
          ],
          "internalType": "struct Org.Organization[]",
          "name": "",
          "type": "tuple[]"
        }
      ],
      "stateMutability": "view",
      "type": "function",
      "constant": true
    },
    {
      "inputs": [],
      "name": "getPatients",
      "outputs": [
        {
          "components": [
            {
              "internalType": "string",
              "name": "orgname",
              "type": "string"
            },
            {
              "internalType": "string",
              "name": "pid",
              "type": "string"
            },
            {
              "internalType": "string",
              "name": "patient_name",
              "type": "string"
            },
            {
              "internalType": "string",
              "name": "addr",
              "type": "string"
            },
            {
              "internalType": "uint256",
              "name": "age",
              "type": "uint256"
            },
            {
              "internalType": "uint256",
              "name": "mobno",
              "type": "uint256"
            },
            {
              "internalType": "string",
              "name": "email",
              "type": "string"
            },
            {
              "internalType": "uint256",
              "name": "report_date",
              "type": "uint256"
            },
            {
              "internalType": "string",
              "name": "test_name",
              "type": "string"
            },
            {
              "internalType": "string",
              "name": "description",
              "type": "string"
            }
          ],
          "internalType": "struct Org.Patient[]",
          "name": "",
          "type": "tuple[]"
        }
      ],
      "stateMutability": "view",
      "type": "function",
      "constant": true
    }
  ],
  "bytecode": "0x60806040523480156200001157600080fd5b50604051620048b7380380620048b78339818101604052810190620000379190620007f0565b33600460006101000a81548173ffffffffffffffffffffffffffffffffffffffff021916908373ffffffffffffffffffffffffffffffffffffffff1602179055506000604051806101000160405280600460009054906101000a900473ffffffffffffffffffffffffffffffffffffffff1673ffffffffffffffffffffffffffffffffffffffff1681526020018781526020018681526020018581526020018481526020018381526020016040518060400160405280600581526020017f61646d696e00000000000000000000000000000000000000000000000000000081525081526020016001151581525090506200015a600460009054906101000a900473ffffffffffffffffffffffffffffffffffffffff16826200016660201b60201c565b50505050505062000978565b600060030160008373ffffffffffffffffffffffffffffffffffffffff1673ffffffffffffffffffffffffffffffffffffffff16815260200190815260200160002060009054906101000a900460ff1615620003295780600060010160008473ffffffffffffffffffffffffffffffffffffffff1673ffffffffffffffffffffffffffffffffffffffff16815260200190815260200160002060008201518160000160006101000a81548173ffffffffffffffffffffffffffffffffffffffff021916908373ffffffffffffffffffffffffffffffffffffffff160217905550602082015181600101908051906020019062000264929190620005a3565b50604082015181600201908051906020019062000283929190620005a3565b506060820151816003019080519060200190620002a2929190620005a3565b506080820151816004019080519060200190620002c1929190620005a3565b5060a0820151816005019080519060200190620002e0929190620005a3565b5060c0820151816006019080519060200190620002ff929190620005a3565b5060e08201518160070160006101000a81548160ff0219169083151502179055509050506200059f565b6001600060030160008473ffffffffffffffffffffffffffffffffffffffff1673ffffffffffffffffffffffffffffffffffffffff16815260200190815260200160002060006101000a81548160ff02191690831515021790555080600060010160008473ffffffffffffffffffffffffffffffffffffffff1673ffffffffffffffffffffffffffffffffffffffff16815260200190815260200160002060008201518160000160006101000a81548173ffffffffffffffffffffffffffffffffffffffff021916908373ffffffffffffffffffffffffffffffffffffffff16021790555060208201518160010190805190602001906200042c929190620005a3565b5060408201518160020190805190602001906200044b929190620005a3565b5060608201518160030190805190602001906200046a929190620005a3565b50608082015181600401908051906020019062000489929190620005a3565b5060a0820151816005019080519060200190620004a8929190620005a3565b5060c0820151816006019080519060200190620004c7929190620005a3565b5060e08201518160070160006101000a81548160ff0219169083151502179055509050506000800180549050600060020160008473ffffffffffffffffffffffffffffffffffffffff1673ffffffffffffffffffffffffffffffffffffffff1681526020019081526020016000208190555060008001829080600181540180825580915050600190039060005260206000200160009091909190916101000a81548173ffffffffffffffffffffffffffffffffffffffff021916908373ffffffffffffffffffffffffffffffffffffffff1602179055505b5050565b828054620005b19062000942565b90600052602060002090601f016020900481019282620005d5576000855562000621565b82601f10620005f057805160ff191683800117855562000621565b8280016001018555821562000621579182015b828111156200062057825182559160200191906001019062000603565b5b50905062000630919062000634565b5090565b5b808211156200064f57600081600090555060010162000635565b5090565b6000604051905090565b600080fd5b600080fd5b600080fd5b600080fd5b6000601f19601f8301169050919050565b7f4e487b7100000000000000000000000000000000000000000000000000000000600052604160045260246000fd5b620006bc8262000671565b810181811067ffffffffffffffff82111715620006de57620006dd62000682565b5b80604052505050565b6000620006f362000653565b9050620007018282620006b1565b919050565b600067ffffffffffffffff82111562000724576200072362000682565b5b6200072f8262000671565b9050602081019050919050565b60005b838110156200075c5780820151818401526020810190506200073f565b838111156200076c576000848401525b50505050565b600062000789620007838462000706565b620006e7565b905082815260208101848484011115620007a857620007a76200066c565b5b620007b58482856200073c565b509392505050565b600082601f830112620007d557620007d462000667565b5b8151620007e784826020860162000772565b91505092915050565b600080600080600060a086880312156200080f576200080e6200065d565b5b600086015167ffffffffffffffff81111562000830576200082f62000662565b5b6200083e88828901620007bd565b955050602086015167ffffffffffffffff81111562000862576200086162000662565b5b6200087088828901620007bd565b945050604086015167ffffffffffffffff81111562000894576200089362000662565b5b620008a288828901620007bd565b935050606086015167ffffffffffffffff811115620008c657620008c562000662565b5b620008d488828901620007bd565b925050608086015167ffffffffffffffff811115620008f857620008f762000662565b5b6200090688828901620007bd565b9150509295509295909350565b7f4e487b7100000000000000000000000000000000000000000000000000000000600052602260045260246000fd5b600060028204905060018216806200095b57607f821691505b6020821081141562000972576200097162000913565b5b50919050565b613f2f80620009886000396000f3fe608060405234801561001057600080fd5b50600436106100935760003560e01c80636d567acd116100665780636d567acd1461010c5780638bfbd2e61461012857806393119a8314610146578063c1a666651461017f578063fca68f451461019d57610093565b806312ad1c37146100985780635262e2a1146100b6578063578b4dfe146100d45780635a09007b146100f0575b600080fd5b6100a06101b9565b6040516100ad9190613034565b60405180910390f35b6100be610635565b6040516100cb9190613185565b60405180910390f35b6100ee60048036038101906100e991906131e7565b610a6d565b005b61010a60048036038101906101059190613349565b610c15565b005b610126600480360381019061012191906131e7565b610cf0565b005b610130610e1b565b60405161013d91906135e5565b60405180910390f35b610160600480360381019061015b9190613633565b6117fb565b6040516101769a999897969594939291906136b9565b60405180910390f35b610187611c17565b60405161019491906135e5565b60405180910390f35b6101b760048036038101906101b29190613786565b6125f5565b005b60606005805480602002602001604051908101604052809291908181526020016000905b8282101561062c57838290600052602060002090600a02016040518061014001604052908160008201805461021190613958565b80601f016020809104026020016040519081016040528092919081815260200182805461023d90613958565b801561028a5780601f1061025f5761010080835404028352916020019161028a565b820191906000526020600020905b81548152906001019060200180831161026d57829003601f168201915b505050505081526020016001820180546102a390613958565b80601f01602080910402602001604051908101604052809291908181526020018280546102cf90613958565b801561031c5780601f106102f15761010080835404028352916020019161031c565b820191906000526020600020905b8154815290600101906020018083116102ff57829003601f168201915b5050505050815260200160028201805461033590613958565b80601f016020809104026020016040519081016040528092919081815260200182805461036190613958565b80156103ae5780601f10610383576101008083540402835291602001916103ae565b820191906000526020600020905b81548152906001019060200180831161039157829003601f168201915b505050505081526020016003820180546103c790613958565b80601f01602080910402602001604051908101604052809291908181526020018280546103f390613958565b80156104405780601f1061041557610100808354040283529160200191610440565b820191906000526020600020905b81548152906001019060200180831161042357829003601f168201915b50505050508152602001600482015481526020016005820154815260200160068201805461046d90613958565b80601f016020809104026020016040519081016040528092919081815260200182805461049990613958565b80156104e65780601f106104bb576101008083540402835291602001916104e6565b820191906000526020600020905b8154815290600101906020018083116104c957829003601f168201915b505050505081526020016007820154815260200160088201805461050990613958565b80601f016020809104026020016040519081016040528092919081815260200182805461053590613958565b80156105825780601f1061055757610100808354040283529160200191610582565b820191906000526020600020905b81548152906001019060200180831161056557829003601f168201915b5050505050815260200160098201805461059b90613958565b80601f01602080910402602001604051908101604052809291908181526020018280546105c790613958565b80156106145780601f106105e957610100808354040283529160200191610614565b820191906000526020600020905b8154815290600101906020018083116105f757829003601f168201915b505050505081525050815260200190600101906101dd565b50505050905090565b61063d612c7c565b600060010160003373ffffffffffffffffffffffffffffffffffffffff1673ffffffffffffffffffffffffffffffffffffffff168152602001908152602001600020604051806101000160405290816000820160009054906101000a900473ffffffffffffffffffffffffffffffffffffffff1673ffffffffffffffffffffffffffffffffffffffff1673ffffffffffffffffffffffffffffffffffffffff1681526020016001820180546106f190613958565b80601f016020809104026020016040519081016040528092919081815260200182805461071d90613958565b801561076a5780601f1061073f5761010080835404028352916020019161076a565b820191906000526020600020905b81548152906001019060200180831161074d57829003601f168201915b5050505050815260200160028201805461078390613958565b80601f01602080910402602001604051908101604052809291908181526020018280546107af90613958565b80156107fc5780601f106107d1576101008083540402835291602001916107fc565b820191906000526020600020905b8154815290600101906020018083116107df57829003601f168201915b5050505050815260200160038201805461081590613958565b80601f016020809104026020016040519081016040528092919081815260200182805461084190613958565b801561088e5780601f106108635761010080835404028352916020019161088e565b820191906000526020600020905b81548152906001019060200180831161087157829003601f168201915b505050505081526020016004820180546108a790613958565b80601f01602080910402602001604051908101604052809291908181526020018280546108d390613958565b80156109205780601f106108f557610100808354040283529160200191610920565b820191906000526020600020905b81548152906001019060200180831161090357829003601f168201915b5050505050815260200160058201805461093990613958565b80601f016020809104026020016040519081016040528092919081815260200182805461096590613958565b80156109b25780601f10610987576101008083540402835291602001916109b2565b820191906000526020600020905b81548152906001019060200180831161099557829003601f168201915b505050505081526020016006820180546109cb90613958565b80601f01602080910402602001604051908101604052809291908181526020018280546109f790613958565b8015610a445780601f10610a1957610100808354040283529160200191610a44565b820191906000526020600020905b815481529060010190602001808311610a2757829003601f168201915b505050505081526020016007820160009054906101000a900460ff161515151581525050905090565b600460009054906101000a900473ffffffffffffffffffffffffffffffffffffffff1673ffffffffffffffffffffffffffffffffffffffff163373ffffffffffffffffffffffffffffffffffffffff1614610afd576040517f08c379a0000000000000000000000000000000000000000000000000000000008152600401610af4906139fc565b60405180910390fd5b600060010160008273ffffffffffffffffffffffffffffffffffffffff1673ffffffffffffffffffffffffffffffffffffffff168152602001908152602001600020600080820160006101000a81549073ffffffffffffffffffffffffffffffffffffffff0219169055600182016000610b779190612cd9565b600282016000610b879190612cd9565b600382016000610b979190612cd9565b600482016000610ba79190612cd9565b600582016000610bb79190612cd9565b600682016000610bc79190612cd9565b6007820160006101000a81549060ff021916905550507fb3b89ce598c16aae9fe6d2b30d444c1c5aeaac7f4a71ef1b307d22dc89f78765604051610c0a90613a68565b60405180910390a150565b600033905060006040518061010001604052808373ffffffffffffffffffffffffffffffffffffffff1681526020018881526020018781526020018681526020018581526020018481526020016040518060400160405280600481526020017f75736572000000000000000000000000000000000000000000000000000000008152508152602001600015158152509050610cb08282612859565b7f6a83035d2a13f296fa3d17aed9c271b435a36324fd1d901239600c91ed044f7981604051610cdf9190613185565b60405180910390a150505050505050565b600460009054906101000a900473ffffffffffffffffffffffffffffffffffffffff1673ffffffffffffffffffffffffffffffffffffffff163373ffffffffffffffffffffffffffffffffffffffff1614610d80576040517f08c379a0000000000000000000000000000000000000000000000000000000008152600401610d7790613afa565b60405180910390fd5b60008060010160008373ffffffffffffffffffffffffffffffffffffffff1673ffffffffffffffffffffffffffffffffffffffff168152602001908152602001600020905060018160070160006101000a81548160ff0219169083151502179055507fb3b89ce598c16aae9fe6d2b30d444c1c5aeaac7f4a71ef1b307d22dc89f78765604051610e0f90613b66565b60405180910390a15050565b60606000805b60008001805490508110156112cb576000806001016000806000018481548110610e4e57610e4d613b86565b5b9060005260206000200160009054906101000a900473ffffffffffffffffffffffffffffffffffffffff1673ffffffffffffffffffffffffffffffffffffffff1673ffffffffffffffffffffffffffffffffffffffff168152602001908152602001600020604051806101000160405290816000820160009054906101000a900473ffffffffffffffffffffffffffffffffffffffff1673ffffffffffffffffffffffffffffffffffffffff1673ffffffffffffffffffffffffffffffffffffffff168152602001600182018054610f2590613958565b80601f0160208091040260200160405190810160405280929190818152602001828054610f5190613958565b8015610f9e5780601f10610f7357610100808354040283529160200191610f9e565b820191906000526020600020905b815481529060010190602001808311610f8157829003601f168201915b50505050508152602001600282018054610fb790613958565b80601f0160208091040260200160405190810160405280929190818152602001828054610fe390613958565b80156110305780601f1061100557610100808354040283529160200191611030565b820191906000526020600020905b81548152906001019060200180831161101357829003601f168201915b5050505050815260200160038201805461104990613958565b80601f016020809104026020016040519081016040528092919081815260200182805461107590613958565b80156110c25780601f10611097576101008083540402835291602001916110c2565b820191906000526020600020905b8154815290600101906020018083116110a557829003601f168201915b505050505081526020016004820180546110db90613958565b80601f016020809104026020016040519081016040528092919081815260200182805461110790613958565b80156111545780601f1061112957610100808354040283529160200191611154565b820191906000526020600020905b81548152906001019060200180831161113757829003601f168201915b5050505050815260200160058201805461116d90613958565b80601f016020809104026020016040519081016040528092919081815260200182805461119990613958565b80156111e65780601f106111bb576101008083540402835291602001916111e6565b820191906000526020600020905b8154815290600101906020018083116111c957829003601f168201915b505050505081526020016006820180546111ff90613958565b80601f016020809104026020016040519081016040528092919081815260200182805461122b90613958565b80156112785780601f1061124d57610100808354040283529160200191611278565b820191906000526020600020905b81548152906001019060200180831161125b57829003601f168201915b505050505081526020016007820160009054906101000a900460ff16151515158152505090508060e00151156112b75782806112b390613be4565b9350505b5080806112c390613be4565b915050610e21565b5060008167ffffffffffffffff8111156112e8576112e761321e565b5b60405190808252806020026020018201604052801561132157816020015b61130e612c7c565b8152602001906001900390816113065790505b5090506000805b60008001805490508110156117f157600080600101600080600001848154811061135557611354613b86565b5b9060005260206000200160009054906101000a900473ffffffffffffffffffffffffffffffffffffffff1673ffffffffffffffffffffffffffffffffffffffff1673ffffffffffffffffffffffffffffffffffffffff168152602001908152602001600020604051806101000160405290816000820160009054906101000a900473ffffffffffffffffffffffffffffffffffffffff1673ffffffffffffffffffffffffffffffffffffffff1673ffffffffffffffffffffffffffffffffffffffff16815260200160018201805461142c90613958565b80601f016020809104026020016040519081016040528092919081815260200182805461145890613958565b80156114a55780601f1061147a576101008083540402835291602001916114a5565b820191906000526020600020905b81548152906001019060200180831161148857829003601f168201915b505050505081526020016002820180546114be90613958565b80601f01602080910402602001604051908101604052809291908181526020018280546114ea90613958565b80156115375780601f1061150c57610100808354040283529160200191611537565b820191906000526020600020905b81548152906001019060200180831161151a57829003601f168201915b5050505050815260200160038201805461155090613958565b80601f016020809104026020016040519081016040528092919081815260200182805461157c90613958565b80156115c95780601f1061159e576101008083540402835291602001916115c9565b820191906000526020600020905b8154815290600101906020018083116115ac57829003601f168201915b505050505081526020016004820180546115e290613958565b80601f016020809104026020016040519081016040528092919081815260200182805461160e90613958565b801561165b5780601f106116305761010080835404028352916020019161165b565b820191906000526020600020905b81548152906001019060200180831161163e57829003601f168201915b5050505050815260200160058201805461167490613958565b80601f01602080910402602001604051908101604052809291908181526020018280546116a090613958565b80156116ed5780601f106116c2576101008083540402835291602001916116ed565b820191906000526020600020905b8154815290600101906020018083116116d057829003601f168201915b5050505050815260200160068201805461170690613958565b80601f016020809104026020016040519081016040528092919081815260200182805461173290613958565b801561177f5780601f106117545761010080835404028352916020019161177f565b820191906000526020600020905b81548152906001019060200180831161176257829003601f168201915b505050505081526020016007820160009054906101000a900460ff16151515158152505090508060e00151156117dd57808484815181106117c3576117c2613b86565b5b602002602001018190525082806117d990613be4565b9350505b5080806117e990613be4565b915050611328565b5081935050505090565b6005818154811061180b57600080fd5b90600052602060002090600a020160009150905080600001805461182e90613958565b80601f016020809104026020016040519081016040528092919081815260200182805461185a90613958565b80156118a75780601f1061187c576101008083540402835291602001916118a7565b820191906000526020600020905b81548152906001019060200180831161188a57829003601f168201915b5050505050908060010180546118bc90613958565b80601f01602080910402602001604051908101604052809291908181526020018280546118e890613958565b80156119355780601f1061190a57610100808354040283529160200191611935565b820191906000526020600020905b81548152906001019060200180831161191857829003601f168201915b50505050509080600201805461194a90613958565b80601f016020809104026020016040519081016040528092919081815260200182805461197690613958565b80156119c35780601f10611998576101008083540402835291602001916119c3565b820191906000526020600020905b8154815290600101906020018083116119a657829003601f168201915b5050505050908060030180546119d890613958565b80601f0160208091040260200160405190810160405280929190818152602001828054611a0490613958565b8015611a515780601f10611a2657610100808354040283529160200191611a51565b820191906000526020600020905b815481529060010190602001808311611a3457829003601f168201915b505050505090806004015490806005015490806006018054611a7290613958565b80601f0160208091040260200160405190810160405280929190818152602001828054611a9e90613958565b8015611aeb5780601f10611ac057610100808354040283529160200191611aeb565b820191906000526020600020905b815481529060010190602001808311611ace57829003601f168201915b505050505090806007015490806008018054611b0690613958565b80601f0160208091040260200160405190810160405280929190818152602001828054611b3290613958565b8015611b7f5780601f10611b5457610100808354040283529160200191611b7f565b820191906000526020600020905b815481529060010190602001808311611b6257829003601f168201915b505050505090806009018054611b9490613958565b80601f0160208091040260200160405190810160405280929190818152602001828054611bc090613958565b8015611c0d5780601f10611be257610100808354040283529160200191611c0d565b820191906000526020600020905b815481529060010190602001808311611bf057829003601f168201915b505050505090508a565b60606000805b60008001805490508110156120c6576000806001016000806000018481548110611c4a57611c49613b86565b5b9060005260206000200160009054906101000a900473ffffffffffffffffffffffffffffffffffffffff1673ffffffffffffffffffffffffffffffffffffffff1673ffffffffffffffffffffffffffffffffffffffff168152602001908152602001600020604051806101000160405290816000820160009054906101000a900473ffffffffffffffffffffffffffffffffffffffff1673ffffffffffffffffffffffffffffffffffffffff1673ffffffffffffffffffffffffffffffffffffffff168152602001600182018054611d2190613958565b80601f0160208091040260200160405190810160405280929190818152602001828054611d4d90613958565b8015611d9a5780601f10611d6f57610100808354040283529160200191611d9a565b820191906000526020600020905b815481529060010190602001808311611d7d57829003601f168201915b50505050508152602001600282018054611db390613958565b80601f0160208091040260200160405190810160405280929190818152602001828054611ddf90613958565b8015611e2c5780601f10611e0157610100808354040283529160200191611e2c565b820191906000526020600020905b815481529060010190602001808311611e0f57829003601f168201915b50505050508152602001600382018054611e4590613958565b80601f0160208091040260200160405190810160405280929190818152602001828054611e7190613958565b8015611ebe5780601f10611e9357610100808354040283529160200191611ebe565b820191906000526020600020905b815481529060010190602001808311611ea157829003601f168201915b50505050508152602001600482018054611ed790613958565b80601f0160208091040260200160405190810160405280929190818152602001828054611f0390613958565b8015611f505780601f10611f2557610100808354040283529160200191611f50565b820191906000526020600020905b815481529060010190602001808311611f3357829003601f168201915b50505050508152602001600582018054611f6990613958565b80601f0160208091040260200160405190810160405280929190818152602001828054611f9590613958565b8015611fe25780601f10611fb757610100808354040283529160200191611fe2565b820191906000526020600020905b815481529060010190602001808311611fc557829003601f168201915b50505050508152602001600682018054611ffb90613958565b80601f016020809104026020016040519081016040528092919081815260200182805461202790613958565b80156120745780601f1061204957610100808354040283529160200191612074565b820191906000526020600020905b81548152906001019060200180831161205757829003601f168201915b505050505081526020016007820160009054906101000a900460ff16151515158152505090508060e001516120b25782806120ae90613be4565b9350505b5080806120be90613be4565b915050611c1d565b5060008167ffffffffffffffff8111156120e3576120e261321e565b5b60405190808252806020026020018201604052801561211c57816020015b612109612c7c565b8152602001906001900390816121015790505b5090506000805b60008001805490508110156125eb5760008060010160008060000184815481106121505761214f613b86565b5b9060005260206000200160009054906101000a900473ffffffffffffffffffffffffffffffffffffffff1673ffffffffffffffffffffffffffffffffffffffff1673ffffffffffffffffffffffffffffffffffffffff168152602001908152602001600020604051806101000160405290816000820160009054906101000a900473ffffffffffffffffffffffffffffffffffffffff1673ffffffffffffffffffffffffffffffffffffffff1673ffffffffffffffffffffffffffffffffffffffff16815260200160018201805461222790613958565b80601f016020809104026020016040519081016040528092919081815260200182805461225390613958565b80156122a05780601f10612275576101008083540402835291602001916122a0565b820191906000526020600020905b81548152906001019060200180831161228357829003601f168201915b505050505081526020016002820180546122b990613958565b80601f01602080910402602001604051908101604052809291908181526020018280546122e590613958565b80156123325780601f1061230757610100808354040283529160200191612332565b820191906000526020600020905b81548152906001019060200180831161231557829003601f168201915b5050505050815260200160038201805461234b90613958565b80601f016020809104026020016040519081016040528092919081815260200182805461237790613958565b80156123c45780601f10612399576101008083540402835291602001916123c4565b820191906000526020600020905b8154815290600101906020018083116123a757829003601f168201915b505050505081526020016004820180546123dd90613958565b80601f016020809104026020016040519081016040528092919081815260200182805461240990613958565b80156124565780601f1061242b57610100808354040283529160200191612456565b820191906000526020600020905b81548152906001019060200180831161243957829003601f168201915b5050505050815260200160058201805461246f90613958565b80601f016020809104026020016040519081016040528092919081815260200182805461249b90613958565b80156124e85780601f106124bd576101008083540402835291602001916124e8565b820191906000526020600020905b8154815290600101906020018083116124cb57829003601f168201915b5050505050815260200160068201805461250190613958565b80601f016020809104026020016040519081016040528092919081815260200182805461252d90613958565b801561257a5780601f1061254f5761010080835404028352916020019161257a565b820191906000526020600020905b81548152906001019060200180831161255d57829003601f168201915b505050505081526020016007820160009054906101000a900460ff16151515158152505090508060e001516125d757808484815181106125bd576125bc613b86565b5b602002602001018190525082806125d390613be4565b9350505b5080806125e390613be4565b915050612123565b5081935050505090565b600460009054906101000a900473ffffffffffffffffffffffffffffffffffffffff1673ffffffffffffffffffffffffffffffffffffffff163373ffffffffffffffffffffffffffffffffffffffff161415612686576040517f08c379a000000000000000000000000000000000000000000000000000000000815260040161267d90613c9f565b60405180910390fd5b60056040518061014001604052808c81526020018b81526020018a81526020018981526020018881526020018781526020018681526020018581526020018481526020018381525090806001815401808255809150506001900390600052602060002090600a02016000909190919091506000820151816000019080519060200190612713929190612d19565b506020820151816001019080519060200190612730929190612d19565b50604082015181600201908051906020019061274d929190612d19565b50606082015181600301908051906020019061276a929190612d19565b506080820151816004015560a0820151816005015560c082015181600601908051906020019061279b929190612d19565b5060e082015181600701556101008201518160080190805190602001906127c3929190612d19565b506101208201518160090190805190602001906127e1929190612d19565b5050507f2f888bcf760a49b8dae728396135b3c79b67fe136b12aa9c18966cbac61c1b21600560016005805490506128199190613cbf565b8154811061282a57612829613b86565b5b90600052602060002090600a02016040516128459190613ed7565b60405180910390a150505050505050505050565b600060030160008373ffffffffffffffffffffffffffffffffffffffff1673ffffffffffffffffffffffffffffffffffffffff16815260200190815260200160002060009054906101000a900460ff1615612a0e5780600060010160008473ffffffffffffffffffffffffffffffffffffffff1673ffffffffffffffffffffffffffffffffffffffff16815260200190815260200160002060008201518160000160006101000a81548173ffffffffffffffffffffffffffffffffffffffff021916908373ffffffffffffffffffffffffffffffffffffffff1602179055506020820151816001019080519060200190612954929190612d19565b506040820151816002019080519060200190612971929190612d19565b50606082015181600301908051906020019061298e929190612d19565b5060808201518160040190805190602001906129ab929190612d19565b5060a08201518160050190805190602001906129c8929190612d19565b5060c08201518160060190805190602001906129e5929190612d19565b5060e08201518160070160006101000a81548160ff021916908315150217905550905050612c78565b6001600060030160008473ffffffffffffffffffffffffffffffffffffffff1673ffffffffffffffffffffffffffffffffffffffff16815260200190815260200160002060006101000a81548160ff02191690831515021790555080600060010160008473ffffffffffffffffffffffffffffffffffffffff1673ffffffffffffffffffffffffffffffffffffffff16815260200190815260200160002060008201518160000160006101000a81548173ffffffffffffffffffffffffffffffffffffffff021916908373ffffffffffffffffffffffffffffffffffffffff1602179055506020820151816001019080519060200190612b0f929190612d19565b506040820151816002019080519060200190612b2c929190612d19565b506060820151816003019080519060200190612b49929190612d19565b506080820151816004019080519060200190612b66929190612d19565b5060a0820151816005019080519060200190612b83929190612d19565b5060c0820151816006019080519060200190612ba0929190612d19565b5060e08201518160070160006101000a81548160ff0219169083151502179055509050506000800180549050600060020160008473ffffffffffffffffffffffffffffffffffffffff1673ffffffffffffffffffffffffffffffffffffffff1681526020019081526020016000208190555060008001829080600181540180825580915050600190039060005260206000200160009091909190916101000a81548173ffffffffffffffffffffffffffffffffffffffff021916908373ffffffffffffffffffffffffffffffffffffffff1602179055505b5050565b604051806101000160405280600073ffffffffffffffffffffffffffffffffffffffff1681526020016060815260200160608152602001606081526020016060815260200160608152602001606081526020016000151581525090565b508054612ce590613958565b6000825580601f10612cf75750612d16565b601f016020900490600052602060002090810190612d159190612d9f565b5b50565b828054612d2590613958565b90600052602060002090601f016020900481019282612d475760008555612d8e565b82601f10612d6057805160ff1916838001178555612d8e565b82800160010185558215612d8e579182015b82811115612d8d578251825591602001919060010190612d72565b5b509050612d9b9190612d9f565b5090565b5b80821115612db8576000816000905550600101612da0565b5090565b600081519050919050565b600082825260208201905092915050565b6000819050602082019050919050565b600081519050919050565b600082825260208201905092915050565b60005b83811015612e22578082015181840152602081019050612e07565b83811115612e31576000848401525b50505050565b6000601f19601f8301169050919050565b6000612e5382612de8565b612e5d8185612df3565b9350612e6d818560208601612e04565b612e7681612e37565b840191505092915050565b6000819050919050565b612e9481612e81565b82525050565b6000610140830160008301518482036000860152612eb88282612e48565b91505060208301518482036020860152612ed28282612e48565b91505060408301518482036040860152612eec8282612e48565b91505060608301518482036060860152612f068282612e48565b9150506080830151612f1b6080860182612e8b565b5060a0830151612f2e60a0860182612e8b565b5060c083015184820360c0860152612f468282612e48565b91505060e0830151612f5b60e0860182612e8b565b50610100830151848203610100860152612f758282612e48565b915050610120830151848203610120860152612f918282612e48565b9150508091505092915050565b6000612faa8383612e9a565b905092915050565b6000602082019050919050565b6000612fca82612dbc565b612fd48185612dc7565b935083602082028501612fe685612dd8565b8060005b8581101561302257848403895281516130038582612f9e565b945061300e83612fb2565b925060208a01995050600181019050612fea565b50829750879550505050505092915050565b6000602082019050818103600083015261304e8184612fbf565b905092915050565b600073ffffffffffffffffffffffffffffffffffffffff82169050919050565b600061308182613056565b9050919050565b61309181613076565b82525050565b60008115159050919050565b6130ac81613097565b82525050565b6000610100830160008301516130cb6000860182613088565b50602083015184820360208601526130e38282612e48565b915050604083015184820360408601526130fd8282612e48565b915050606083015184820360608601526131178282612e48565b915050608083015184820360808601526131318282612e48565b91505060a083015184820360a086015261314b8282612e48565b91505060c083015184820360c08601526131658282612e48565b91505060e083015161317a60e08601826130a3565b508091505092915050565b6000602082019050818103600083015261319f81846130b2565b905092915050565b6000604051905090565b600080fd5b600080fd5b6131c481613076565b81146131cf57600080fd5b50565b6000813590506131e1816131bb565b92915050565b6000602082840312156131fd576131fc6131b1565b5b600061320b848285016131d2565b91505092915050565b600080fd5b600080fd5b7f4e487b7100000000000000000000000000000000000000000000000000000000600052604160045260246000fd5b61325682612e37565b810181811067ffffffffffffffff821117156132755761327461321e565b5b80604052505050565b60006132886131a7565b9050613294828261324d565b919050565b600067ffffffffffffffff8211156132b4576132b361321e565b5b6132bd82612e37565b9050602081019050919050565b82818337600083830152505050565b60006132ec6132e784613299565b61327e565b90508281526020810184848401111561330857613307613219565b5b6133138482856132ca565b509392505050565b600082601f8301126133305761332f613214565b5b81356133408482602086016132d9565b91505092915050565b600080600080600060a08688031215613365576133646131b1565b5b600086013567ffffffffffffffff811115613383576133826131b6565b5b61338f8882890161331b565b955050602086013567ffffffffffffffff8111156133b0576133af6131b6565b5b6133bc8882890161331b565b945050604086013567ffffffffffffffff8111156133dd576133dc6131b6565b5b6133e98882890161331b565b935050606086013567ffffffffffffffff81111561340a576134096131b6565b5b6134168882890161331b565b925050608086013567ffffffffffffffff811115613437576134366131b6565b5b6134438882890161331b565b9150509295509295909350565b600081519050919050565b600082825260208201905092915050565b6000819050602082019050919050565b6000610100830160008301516134956000860182613088565b50602083015184820360208601526134ad8282612e48565b915050604083015184820360408601526134c78282612e48565b915050606083015184820360608601526134e18282612e48565b915050608083015184820360808601526134fb8282612e48565b91505060a083015184820360a08601526135158282612e48565b91505060c083015184820360c086015261352f8282612e48565b91505060e083015161354460e08601826130a3565b508091505092915050565b600061355b838361347c565b905092915050565b6000602082019050919050565b600061357b82613450565b613585818561345b565b9350836020820285016135978561346c565b8060005b858110156135d357848403895281516135b4858261354f565b94506135bf83613563565b925060208a0199505060018101905061359b565b50829750879550505050505092915050565b600060208201905081810360008301526135ff8184613570565b905092915050565b61361081612e81565b811461361b57600080fd5b50565b60008135905061362d81613607565b92915050565b600060208284031215613649576136486131b1565b5b60006136578482850161361e565b91505092915050565b600082825260208201905092915050565b600061367c82612de8565b6136868185613660565b9350613696818560208601612e04565b61369f81612e37565b840191505092915050565b6136b381612e81565b82525050565b60006101408201905081810360008301526136d4818d613671565b905081810360208301526136e8818c613671565b905081810360408301526136fc818b613671565b90508181036060830152613710818a613671565b905061371f60808301896136aa565b61372c60a08301886136aa565b81810360c083015261373e8187613671565b905061374d60e08301866136aa565b8181036101008301526137608185613671565b90508181036101208301526137758184613671565b90509b9a5050505050505050505050565b6000806000806000806000806000806101408b8d0312156137aa576137a96131b1565b5b60008b013567ffffffffffffffff8111156137c8576137c76131b6565b5b6137d48d828e0161331b565b9a505060208b013567ffffffffffffffff8111156137f5576137f46131b6565b5b6138018d828e0161331b565b99505060408b013567ffffffffffffffff811115613822576138216131b6565b5b61382e8d828e0161331b565b98505060608b013567ffffffffffffffff81111561384f5761384e6131b6565b5b61385b8d828e0161331b565b975050608061386c8d828e0161361e565b96505060a061387d8d828e0161361e565b95505060c08b013567ffffffffffffffff81111561389e5761389d6131b6565b5b6138aa8d828e0161331b565b94505060e06138bb8d828e0161361e565b9350506101008b013567ffffffffffffffff8111156138dd576138dc6131b6565b5b6138e98d828e0161331b565b9250506101208b013567ffffffffffffffff81111561390b5761390a6131b6565b5b6139178d828e0161331b565b9150509295989b9194979a5092959850565b7f4e487b7100000000000000000000000000000000000000000000000000000000600052602260045260246000fd5b6000600282049050600182168061397057607f821691505b6020821081141561398457613983613929565b5b50919050565b7f4f6e6c792061646d696e2063616e2072656a656374204f7267616e697a61746960008201527f6f6e000000000000000000000000000000000000000000000000000000000000602082015250565b60006139e6602283613660565b91506139f18261398a565b604082019050919050565b60006020820190508181036000830152613a15816139d9565b9050919050565b7f4f7267616e697a6174696f6e2072656a65637465640000000000000000000000600082015250565b6000613a52601583613660565b9150613a5d82613a1c565b602082019050919050565b60006020820190508181036000830152613a8181613a45565b9050919050565b7f4f6e6c792061646d696e2063616e20766572696679204f7267616e697a61746960008201527f6f6e000000000000000000000000000000000000000000000000000000000000602082015250565b6000613ae4602283613660565b9150613aef82613a88565b604082019050919050565b60006020820190508181036000830152613b1381613ad7565b9050919050565b7f4f7267616e697a6174696f6e2075706461746520737563636573730000000000600082015250565b6000613b50601b83613660565b9150613b5b82613b1a565b602082019050919050565b60006020820190508181036000830152613b7f81613b43565b9050919050565b7f4e487b7100000000000000000000000000000000000000000000000000000000600052603260045260246000fd5b7f4e487b7100000000000000000000000000000000000000000000000000000000600052601160045260246000fd5b6000613bef82612e81565b91507fffffffffffffffffffffffffffffffffffffffffffffffffffffffffffffffff821415613c2257613c21613bb5565b5b600182019050919050565b7f4f6e6c79204f7267616e697a6174696f6e732063616e20616464206e6577207060008201527f617469656e747300000000000000000000000000000000000000000000000000602082015250565b6000613c89602783613660565b9150613c9482613c2d565b604082019050919050565b60006020820190508181036000830152613cb881613c7c565b9050919050565b6000613cca82612e81565b9150613cd583612e81565b925082821015613ce857613ce7613bb5565b5b828203905092915050565b60008190508160005260206000209050919050565b60008154613d1581613958565b613d1f8186612df3565b94506001821660008114613d3a5760018114613d4c57613d7f565b60ff1983168652602086019350613d7f565b613d5585613cf3565b60005b83811015613d7757815481890152600182019150602081019050613d58565b808801955050505b50505092915050565b60008160001c9050919050565b6000819050919050565b6000613db2613dad83613d88565b613d95565b9050919050565b6000610140830160008084018583036000870152613dd78382613d08565b925050600184018583036020870152613df08382613d08565b925050600284018583036040870152613e098382613d08565b925050600384018583036060870152613e228382613d08565b92505060048401549050613e3581613d9f565b613e426080870182612e8b565b5060058401549050613e5381613d9f565b613e6060a0870182612e8b565b506006840185830360c0870152613e778382613d08565b92505060078401549050613e8a81613d9f565b613e9760e0870182612e8b565b5060088401858303610100870152613eaf8382613d08565b92505060098401858303610120870152613ec98382613d08565b925050819250505092915050565b60006020820190508181036000830152613ef18184613db9565b90509291505056fea26469706673582212208ab6308266bf2e398113e3d2f4ffa483794e6256ef037730da76bf6d700f008c64736f6c634300080a0033",
  "immutableReferences": {},
  "source": "// SPDX-License-Identifier: GPL-3.0\npragma solidity >=0.7.0 <0.9.0;\n\ncontract Org {\n    struct Organization {\n        address id;\n        string name;\n        string addr;\n        string email;\n        string con;\n        string typ;\n        string role;\n        bool verified;\n    }\n    struct OrgMap {\n        address[] keys;\n        mapping(address => Organization) values;\n        mapping(address => uint256) indexOf;\n        mapping(address => bool) inserted;\n    }\n    OrgMap private orgmap;\n    function OrgMapSet(address key, Organization memory val) private {\n        if (orgmap.inserted[key]) {\n            orgmap.values[key] = val;\n        } else {\n            orgmap.inserted[key] = true;\n            orgmap.values[key] = val;\n            orgmap.indexOf[key] = orgmap.keys.length;\n            orgmap.keys.push(key);\n        }\n    }\n    address admin;\n    struct Patient {\n        string orgname;\n        string pid;\n        string patient_name;\n        string addr;\n        uint256 age;\n        uint256 mobno;\n        string email;\n        uint256 report_date;\n        string test_name;\n        string description;\n    }\n\n    Patient[] public patients;\n    event AddPatient(Patient _patient);\n\n    function addPatient(\n        string memory orgname,\n        string memory pid,\n        string memory patient_name,\n        string memory addr,\n        uint256 age,\n        uint256 mobno,\n        string memory email,\n        uint256 report_date,\n        string memory test_name,\n        string memory description\n    ) public {\n        require(msg.sender != admin, \"Only Organizations can add new patients\");\n        patients.push(\n            Patient({\n                orgname: orgname,\n                pid: pid,\n                patient_name: patient_name,\n                addr: addr,\n                age: age,\n                mobno: mobno,\n                email: email,\n                report_date: report_date,\n                test_name: test_name,\n                description: description\n            })\n        );\n        emit AddPatient(patients[patients.length - 1]);\n    }\n\n    constructor(\n        string memory name,\n        string memory addr,\n        string memory email,\n        string memory con,\n        string memory typ\n    ) {\n        admin = msg.sender;\n        Organization memory org = Organization(\n            admin,\n            name,\n            addr,\n            email,\n            con,\n            typ,\n            \"admin\",\n            true\n        );\n        OrgMapSet(admin, org);\n    }\n    event Register(Organization _org);\n    function register(\n        string memory name,\n        string memory addr,\n        string memory email,\n        string memory con,\n        string memory typ\n    ) public {\n        address sender = msg.sender;\n        // TODO: check that a user is already exist or not\n        Organization memory org = Organization(\n            sender,\n            name,\n            addr,\n            email,\n            con,\n            typ,\n            \"user\",\n            false\n        );\n        OrgMapSet(sender, org);\n        emit Register(org);\n    }\n    function getOrg() public view returns (Organization memory) {\n        return orgmap.values[msg.sender];\n    }\n    function getUnverifiedOrganization()\n        public\n        view\n        returns (Organization[] memory)\n    {\n        uint256 counter = 0;\n\n        for (uint256 i = 0; i < orgmap.keys.length; i++) {\n            Organization memory item = orgmap.values[orgmap.keys[i]];\n            if (!item.verified) counter++;\n        }\n\n        Organization[] memory orgs = new Organization[](counter);\n        uint256 j = 0;\n        for (uint256 i = 0; i < orgmap.keys.length; i++) {\n            Organization memory item = orgmap.values[orgmap.keys[i]];\n            if (!item.verified) {\n                orgs[j] = item;\n                j++;\n            }\n        }\n        return orgs;\n    }\n\n    event VerifyOrganization(string _message);\n\n    function verifyOrganization(address _address) public {\n        require(msg.sender == admin, \"Only admin can verify Organization\");\n        Organization storage org = orgmap.values[_address];\n        org.verified = true;\n        emit VerifyOrganization(\"Organization update success\");\n    }\n    function rejectOrganization(address _address) public {\n        require(msg.sender == admin, \"Only admin can reject Organization\");\n        // You can add any additional logic here before rejecting the organization\n        delete orgmap.values[_address]; // Delete the organization from the mapping\n        emit VerifyOrganization(\"Organization rejected\");\n    }\n\n    function getVerifiedOrganization()\n        public\n        view\n        returns (Organization[] memory)\n    {\n        // TODO: Create a pagination type data return\n        // INFO: Resolve null value from the voters\n        uint256 counter = 0;\n\n        for (uint256 i = 0; i < orgmap.keys.length; i++) {\n            Organization memory item = orgmap.values[orgmap.keys[i]];\n            if (item.verified) counter++;\n        }\n\n        Organization[] memory orgs = new Organization[](counter);\n        uint256 j = 0;\n        for (uint256 i = 0; i < orgmap.keys.length; i++) {\n            Organization memory item = orgmap.values[orgmap.keys[i]];\n            if (item.verified) {\n                orgs[j] = item;\n                j++;\n            }\n        }\n        return orgs;\n    }\n\n    function getPatients() public view returns (Patient[] memory) {\n        return patients;\n    }\n}\n",
  "sourcePath": "D:\\codes\\fit-o-fine\\app\\contracts\\Org.sol",
  "compiler": {
    "name": "solc",
    "version": "0.8.10+commit.fc410830.Emscripten.clang"
  },
  "schemaVersion": "3.4.14",
  "updatedAt": "2024-03-13T18:27:45.942Z",
  "networkType": "ethereum",
  "devdoc": {
    "kind": "dev",
    "methods": {},
    "version": 1
  },
  "userdoc": {
    "kind": "user",
    "methods": {},
    "version": 1
  }
}