{
  "contractName": "Org",
  "abi": [
    {
      "inputs": [
        {
          "internalType": "string",
          "name": "name",
          "type": "string"
        },
        {
          "internalType": "string",
          "name": "addr",
          "type": "string"
        },
        {
          "internalType": "string",
          "name": "email",
          "type": "string"
        },
        {
          "internalType": "string",
          "name": "con",
          "type": "string"
        },
        {
          "internalType": "string",
          "name": "typ",
          "type": "string"
        }
      ],
      "stateMutability": "nonpayable",
      "type": "constructor"
    },
    {
      "anonymous": false,
      "inputs": [
        {
          "components": [
            {
              "internalType": "string",
              "name": "orgname",
              "type": "string"
            },
            {
              "internalType": "string",
              "name": "pid",
              "type": "string"
            },
            {
              "internalType": "string",
              "name": "patient_name",
              "type": "string"
            },
            {
              "internalType": "string",
              "name": "addr",
              "type": "string"
            },
            {
              "internalType": "uint256",
              "name": "age",
              "type": "uint256"
            },
            {
              "internalType": "uint256",
              "name": "mobno",
              "type": "uint256"
            },
            {
              "internalType": "string",
              "name": "email",
              "type": "string"
            },
            {
              "internalType": "uint256",
              "name": "report_date",
              "type": "uint256"
            },
            {
              "internalType": "string",
              "name": "test_name",
              "type": "string"
            },
            {
              "internalType": "string",
              "name": "description",
              "type": "string"
            }
          ],
          "indexed": false,
          "internalType": "struct Org.Patient",
          "name": "_patient",
          "type": "tuple"
        }
      ],
      "name": "AddPatient",
      "type": "event"
    },
    {
      "anonymous": false,
      "inputs": [
        {
          "components": [
            {
              "internalType": "address",
              "name": "id",
              "type": "address"
            },
            {
              "internalType": "string",
              "name": "name",
              "type": "string"
            },
            {
              "internalType": "string",
              "name": "addr",
              "type": "string"
            },
            {
              "internalType": "string",
              "name": "email",
              "type": "string"
            },
            {
              "internalType": "string",
              "name": "con",
              "type": "string"
            },
            {
              "internalType": "string",
              "name": "typ",
              "type": "string"
            },
            {
              "internalType": "string",
              "name": "role",
              "type": "string"
            },
            {
              "internalType": "bool",
              "name": "verified",
              "type": "bool"
            }
          ],
          "indexed": false,
          "internalType": "struct Org.Organization",
          "name": "_org",
          "type": "tuple"
        }
      ],
      "name": "Register",
      "type": "event"
    },
    {
      "anonymous": false,
      "inputs": [
        {
          "indexed": false,
          "internalType": "string",
          "name": "_message",
          "type": "string"
        }
      ],
      "name": "VerifyOrganization",
      "type": "event"
    },
    {
      "inputs": [
        {
          "internalType": "uint256",
          "name": "",
          "type": "uint256"
        }
      ],
      "name": "patients",
      "outputs": [
        {
          "internalType": "string",
          "name": "orgname",
          "type": "string"
        },
        {
          "internalType": "string",
          "name": "pid",
          "type": "string"
        },
        {
          "internalType": "string",
          "name": "patient_name",
          "type": "string"
        },
        {
          "internalType": "string",
          "name": "addr",
          "type": "string"
        },
        {
          "internalType": "uint256",
          "name": "age",
          "type": "uint256"
        },
        {
          "internalType": "uint256",
          "name": "mobno",
          "type": "uint256"
        },
        {
          "internalType": "string",
          "name": "email",
          "type": "string"
        },
        {
          "internalType": "uint256",
          "name": "report_date",
          "type": "uint256"
        },
        {
          "internalType": "string",
          "name": "test_name",
          "type": "string"
        },
        {
          "internalType": "string",
          "name": "description",
          "type": "string"
        }
      ],
      "stateMutability": "view",
      "type": "function",
      "constant": true
    },
    {
      "inputs": [
        {
          "internalType": "string",
          "name": "orgname",
          "type": "string"
        },
        {
          "internalType": "string",
          "name": "pid",
          "type": "string"
        },
        {
          "internalType": "string",
          "name": "patient_name",
          "type": "string"
        },
        {
          "internalType": "string",
          "name": "addr",
          "type": "string"
        },
        {
          "internalType": "uint256",
          "name": "age",
          "type": "uint256"
        },
        {
          "internalType": "uint256",
          "name": "mobno",
          "type": "uint256"
        },
        {
          "internalType": "string",
          "name": "email",
          "type": "string"
        },
        {
          "internalType": "uint256",
          "name": "report_date",
          "type": "uint256"
        },
        {
          "internalType": "string",
          "name": "test_name",
          "type": "string"
        },
        {
          "internalType": "string",
          "name": "description",
          "type": "string"
        }
      ],
      "name": "addPatient",
      "outputs": [],
      "stateMutability": "nonpayable",
      "type": "function"
    },
    {
      "inputs": [
        {
          "internalType": "string",
          "name": "name",
          "type": "string"
        },
        {
          "internalType": "string",
          "name": "addr",
          "type": "string"
        },
        {
          "internalType": "string",
          "name": "email",
          "type": "string"
        },
        {
          "internalType": "string",
          "name": "con",
          "type": "string"
        },
        {
          "internalType": "string",
          "name": "typ",
          "type": "string"
        }
      ],
      "name": "register",
      "outputs": [],
      "stateMutability": "nonpayable",
      "type": "function"
    },
    {
      "inputs": [],
      "name": "getOrg",
      "outputs": [
        {
          "components": [
            {
              "internalType": "address",
              "name": "id",
              "type": "address"
            },
            {
              "internalType": "string",
              "name": "name",
              "type": "string"
            },
            {
              "internalType": "string",
              "name": "addr",
              "type": "string"
            },
            {
              "internalType": "string",
              "name": "email",
              "type": "string"
            },
            {
              "internalType": "string",
              "name": "con",
              "type": "string"
            },
            {
              "internalType": "string",
              "name": "typ",
              "type": "string"
            },
            {
              "internalType": "string",
              "name": "role",
              "type": "string"
            },
            {
              "internalType": "bool",
              "name": "verified",
              "type": "bool"
            }
          ],
          "internalType": "struct Org.Organization",
          "name": "",
          "type": "tuple"
        }
      ],
      "stateMutability": "view",
      "type": "function",
      "constant": true
    },
    {
      "inputs": [],
      "name": "getUnverifiedOrganization",
      "outputs": [
        {
          "components": [
            {
              "internalType": "address",
              "name": "id",
              "type": "address"
            },
            {
              "internalType": "string",
              "name": "name",
              "type": "string"
            },
            {
              "internalType": "string",
              "name": "addr",
              "type": "string"
            },
            {
              "internalType": "string",
              "name": "email",
              "type": "string"
            },
            {
              "internalType": "string",
              "name": "con",
              "type": "string"
            },
            {
              "internalType": "string",
              "name": "typ",
              "type": "string"
            },
            {
              "internalType": "string",
              "name": "role",
              "type": "string"
            },
            {
              "internalType": "bool",
              "name": "verified",
              "type": "bool"
            }
          ],
          "internalType": "struct Org.Organization[]",
          "name": "",
          "type": "tuple[]"
        }
      ],
      "stateMutability": "view",
      "type": "function",
      "constant": true
    },
    {
      "inputs": [
        {
          "internalType": "address",
          "name": "_address",
          "type": "address"
        }
      ],
      "name": "verifyOrganization",
      "outputs": [],
      "stateMutability": "nonpayable",
      "type": "function"
    },
    {
      "inputs": [],
      "name": "getVerifiedOrganization",
      "outputs": [
        {
          "components": [
            {
              "internalType": "address",
              "name": "id",
              "type": "address"
            },
            {
              "internalType": "string",
              "name": "name",
              "type": "string"
            },
            {
              "internalType": "string",
              "name": "addr",
              "type": "string"
            },
            {
              "internalType": "string",
              "name": "email",
              "type": "string"
            },
            {
              "internalType": "string",
              "name": "con",
              "type": "string"
            },
            {
              "internalType": "string",
              "name": "typ",
              "type": "string"
            },
            {
              "internalType": "string",
              "name": "role",
              "type": "string"
            },
            {
              "internalType": "bool",
              "name": "verified",
              "type": "bool"
            }
          ],
          "internalType": "struct Org.Organization[]",
          "name": "",
          "type": "tuple[]"
        }
      ],
      "stateMutability": "view",
      "type": "function",
      "constant": true
    },
    {
      "inputs": [],
      "name": "getPatients",
      "outputs": [
        {
          "components": [
            {
              "internalType": "string",
              "name": "orgname",
              "type": "string"
            },
            {
              "internalType": "string",
              "name": "pid",
              "type": "string"
            },
            {
              "internalType": "string",
              "name": "patient_name",
              "type": "string"
            },
            {
              "internalType": "string",
              "name": "addr",
              "type": "string"
            },
            {
              "internalType": "uint256",
              "name": "age",
              "type": "uint256"
            },
            {
              "internalType": "uint256",
              "name": "mobno",
              "type": "uint256"
            },
            {
              "internalType": "string",
              "name": "email",
              "type": "string"
            },
            {
              "internalType": "uint256",
              "name": "report_date",
              "type": "uint256"
            },
            {
              "internalType": "string",
              "name": "test_name",
              "type": "string"
            },
            {
              "internalType": "string",
              "name": "description",
              "type": "string"
            }
          ],
          "internalType": "struct Org.Patient[]",
          "name": "",
          "type": "tuple[]"
        }
      ],
      "stateMutability": "view",
      "type": "function",
      "constant": true
    }
  ],
  "bytecode": "0x60806040523480156200001157600080fd5b50604051620045aa380380620045aa8339818101604052810190620000379190620007f0565b33600460006101000a81548173ffffffffffffffffffffffffffffffffffffffff021916908373ffffffffffffffffffffffffffffffffffffffff1602179055506000604051806101000160405280600460009054906101000a900473ffffffffffffffffffffffffffffffffffffffff1673ffffffffffffffffffffffffffffffffffffffff1681526020018781526020018681526020018581526020018481526020018381526020016040518060400160405280600581526020017f61646d696e00000000000000000000000000000000000000000000000000000081525081526020016001151581525090506200015a600460009054906101000a900473ffffffffffffffffffffffffffffffffffffffff16826200016660201b60201c565b50505050505062000978565b600060030160008373ffffffffffffffffffffffffffffffffffffffff1673ffffffffffffffffffffffffffffffffffffffff16815260200190815260200160002060009054906101000a900460ff1615620003295780600060010160008473ffffffffffffffffffffffffffffffffffffffff1673ffffffffffffffffffffffffffffffffffffffff16815260200190815260200160002060008201518160000160006101000a81548173ffffffffffffffffffffffffffffffffffffffff021916908373ffffffffffffffffffffffffffffffffffffffff160217905550602082015181600101908051906020019062000264929190620005a3565b50604082015181600201908051906020019062000283929190620005a3565b506060820151816003019080519060200190620002a2929190620005a3565b506080820151816004019080519060200190620002c1929190620005a3565b5060a0820151816005019080519060200190620002e0929190620005a3565b5060c0820151816006019080519060200190620002ff929190620005a3565b5060e08201518160070160006101000a81548160ff0219169083151502179055509050506200059f565b6001600060030160008473ffffffffffffffffffffffffffffffffffffffff1673ffffffffffffffffffffffffffffffffffffffff16815260200190815260200160002060006101000a81548160ff02191690831515021790555080600060010160008473ffffffffffffffffffffffffffffffffffffffff1673ffffffffffffffffffffffffffffffffffffffff16815260200190815260200160002060008201518160000160006101000a81548173ffffffffffffffffffffffffffffffffffffffff021916908373ffffffffffffffffffffffffffffffffffffffff16021790555060208201518160010190805190602001906200042c929190620005a3565b5060408201518160020190805190602001906200044b929190620005a3565b5060608201518160030190805190602001906200046a929190620005a3565b50608082015181600401908051906020019062000489929190620005a3565b5060a0820151816005019080519060200190620004a8929190620005a3565b5060c0820151816006019080519060200190620004c7929190620005a3565b5060e08201518160070160006101000a81548160ff0219169083151502179055509050506000800180549050600060020160008473ffffffffffffffffffffffffffffffffffffffff1673ffffffffffffffffffffffffffffffffffffffff1681526020019081526020016000208190555060008001829080600181540180825580915050600190039060005260206000200160009091909190916101000a81548173ffffffffffffffffffffffffffffffffffffffff021916908373ffffffffffffffffffffffffffffffffffffffff1602179055505b5050565b828054620005b19062000942565b90600052602060002090601f016020900481019282620005d5576000855562000621565b82601f10620005f057805160ff191683800117855562000621565b8280016001018555821562000621579182015b828111156200062057825182559160200191906001019062000603565b5b50905062000630919062000634565b5090565b5b808211156200064f57600081600090555060010162000635565b5090565b6000604051905090565b600080fd5b600080fd5b600080fd5b600080fd5b6000601f19601f8301169050919050565b7f4e487b7100000000000000000000000000000000000000000000000000000000600052604160045260246000fd5b620006bc8262000671565b810181811067ffffffffffffffff82111715620006de57620006dd62000682565b5b80604052505050565b6000620006f362000653565b9050620007018282620006b1565b919050565b600067ffffffffffffffff82111562000724576200072362000682565b5b6200072f8262000671565b9050602081019050919050565b60005b838110156200075c5780820151818401526020810190506200073f565b838111156200076c576000848401525b50505050565b600062000789620007838462000706565b620006e7565b905082815260208101848484011115620007a857620007a76200066c565b5b620007b58482856200073c565b509392505050565b600082601f830112620007d557620007d462000667565b5b8151620007e784826020860162000772565b91505092915050565b600080600080600060a086880312156200080f576200080e6200065d565b5b600086015167ffffffffffffffff81111562000830576200082f62000662565b5b6200083e88828901620007bd565b955050602086015167ffffffffffffffff81111562000862576200086162000662565b5b6200087088828901620007bd565b945050604086015167ffffffffffffffff81111562000894576200089362000662565b5b620008a288828901620007bd565b935050606086015167ffffffffffffffff811115620008c657620008c562000662565b5b620008d488828901620007bd565b925050608086015167ffffffffffffffff811115620008f857620008f762000662565b5b6200090688828901620007bd565b9150509295509295909350565b7f4e487b7100000000000000000000000000000000000000000000000000000000600052602260045260246000fd5b600060028204905060018216806200095b57607f821691505b6020821081141562000972576200097162000913565b5b50919050565b613c2280620009886000396000f3fe608060405234801561001057600080fd5b50600436106100885760003560e01c80638bfbd2e61161005b5780638bfbd2e61461010157806393119a831461011f578063c1a6666514610158578063fca68f451461017657610088565b806312ad1c371461008d5780635262e2a1146100ab5780635a09007b146100c95780636d567acd146100e5575b600080fd5b610095610192565b6040516100a29190612e25565b60405180910390f35b6100b361060e565b6040516100c09190612f76565b60405180910390f35b6100e360048036038101906100de91906130e1565b610a46565b005b6100ff60048036038101906100fa9190613214565b610b21565b005b610109610c4c565b60405161011691906133d6565b60405180910390f35b61013960048036038101906101349190613424565b61162c565b60405161014f9a999897969594939291906134aa565b60405180910390f35b610160611a48565b60405161016d91906133d6565b60405180910390f35b610190600480360381019061018b9190613577565b612426565b005b60606005805480602002602001604051908101604052809291908181526020016000905b8282101561060557838290600052602060002090600a0201604051806101400160405290816000820180546101ea90613749565b80601f016020809104026020016040519081016040528092919081815260200182805461021690613749565b80156102635780601f1061023857610100808354040283529160200191610263565b820191906000526020600020905b81548152906001019060200180831161024657829003601f168201915b5050505050815260200160018201805461027c90613749565b80601f01602080910402602001604051908101604052809291908181526020018280546102a890613749565b80156102f55780601f106102ca576101008083540402835291602001916102f5565b820191906000526020600020905b8154815290600101906020018083116102d857829003601f168201915b5050505050815260200160028201805461030e90613749565b80601f016020809104026020016040519081016040528092919081815260200182805461033a90613749565b80156103875780601f1061035c57610100808354040283529160200191610387565b820191906000526020600020905b81548152906001019060200180831161036a57829003601f168201915b505050505081526020016003820180546103a090613749565b80601f01602080910402602001604051908101604052809291908181526020018280546103cc90613749565b80156104195780601f106103ee57610100808354040283529160200191610419565b820191906000526020600020905b8154815290600101906020018083116103fc57829003601f168201915b50505050508152602001600482015481526020016005820154815260200160068201805461044690613749565b80601f016020809104026020016040519081016040528092919081815260200182805461047290613749565b80156104bf5780601f10610494576101008083540402835291602001916104bf565b820191906000526020600020905b8154815290600101906020018083116104a257829003601f168201915b50505050508152602001600782015481526020016008820180546104e290613749565b80601f016020809104026020016040519081016040528092919081815260200182805461050e90613749565b801561055b5780601f106105305761010080835404028352916020019161055b565b820191906000526020600020905b81548152906001019060200180831161053e57829003601f168201915b5050505050815260200160098201805461057490613749565b80601f01602080910402602001604051908101604052809291908181526020018280546105a090613749565b80156105ed5780601f106105c2576101008083540402835291602001916105ed565b820191906000526020600020905b8154815290600101906020018083116105d057829003601f168201915b505050505081525050815260200190600101906101b6565b50505050905090565b610616612aad565b600060010160003373ffffffffffffffffffffffffffffffffffffffff1673ffffffffffffffffffffffffffffffffffffffff168152602001908152602001600020604051806101000160405290816000820160009054906101000a900473ffffffffffffffffffffffffffffffffffffffff1673ffffffffffffffffffffffffffffffffffffffff1673ffffffffffffffffffffffffffffffffffffffff1681526020016001820180546106ca90613749565b80601f01602080910402602001604051908101604052809291908181526020018280546106f690613749565b80156107435780601f1061071857610100808354040283529160200191610743565b820191906000526020600020905b81548152906001019060200180831161072657829003601f168201915b5050505050815260200160028201805461075c90613749565b80601f016020809104026020016040519081016040528092919081815260200182805461078890613749565b80156107d55780601f106107aa576101008083540402835291602001916107d5565b820191906000526020600020905b8154815290600101906020018083116107b857829003601f168201915b505050505081526020016003820180546107ee90613749565b80601f016020809104026020016040519081016040528092919081815260200182805461081a90613749565b80156108675780601f1061083c57610100808354040283529160200191610867565b820191906000526020600020905b81548152906001019060200180831161084a57829003601f168201915b5050505050815260200160048201805461088090613749565b80601f01602080910402602001604051908101604052809291908181526020018280546108ac90613749565b80156108f95780601f106108ce576101008083540402835291602001916108f9565b820191906000526020600020905b8154815290600101906020018083116108dc57829003601f168201915b5050505050815260200160058201805461091290613749565b80601f016020809104026020016040519081016040528092919081815260200182805461093e90613749565b801561098b5780601f106109605761010080835404028352916020019161098b565b820191906000526020600020905b81548152906001019060200180831161096e57829003601f168201915b505050505081526020016006820180546109a490613749565b80601f01602080910402602001604051908101604052809291908181526020018280546109d090613749565b8015610a1d5780601f106109f257610100808354040283529160200191610a1d565b820191906000526020600020905b815481529060010190602001808311610a0057829003601f168201915b505050505081526020016007820160009054906101000a900460ff161515151581525050905090565b600033905060006040518061010001604052808373ffffffffffffffffffffffffffffffffffffffff1681526020018881526020018781526020018681526020018581526020018481526020016040518060400160405280600481526020017f75736572000000000000000000000000000000000000000000000000000000008152508152602001600015158152509050610ae1828261268a565b7f6a83035d2a13f296fa3d17aed9c271b435a36324fd1d901239600c91ed044f7981604051610b109190612f76565b60405180910390a150505050505050565b600460009054906101000a900473ffffffffffffffffffffffffffffffffffffffff1673ffffffffffffffffffffffffffffffffffffffff163373ffffffffffffffffffffffffffffffffffffffff1614610bb1576040517f08c379a0000000000000000000000000000000000000000000000000000000008152600401610ba8906137ed565b60405180910390fd5b60008060010160008373ffffffffffffffffffffffffffffffffffffffff1673ffffffffffffffffffffffffffffffffffffffff168152602001908152602001600020905060018160070160006101000a81548160ff0219169083151502179055507fb3b89ce598c16aae9fe6d2b30d444c1c5aeaac7f4a71ef1b307d22dc89f78765604051610c4090613859565b60405180910390a15050565b60606000805b60008001805490508110156110fc576000806001016000806000018481548110610c7f57610c7e613879565b5b9060005260206000200160009054906101000a900473ffffffffffffffffffffffffffffffffffffffff1673ffffffffffffffffffffffffffffffffffffffff1673ffffffffffffffffffffffffffffffffffffffff168152602001908152602001600020604051806101000160405290816000820160009054906101000a900473ffffffffffffffffffffffffffffffffffffffff1673ffffffffffffffffffffffffffffffffffffffff1673ffffffffffffffffffffffffffffffffffffffff168152602001600182018054610d5690613749565b80601f0160208091040260200160405190810160405280929190818152602001828054610d8290613749565b8015610dcf5780601f10610da457610100808354040283529160200191610dcf565b820191906000526020600020905b815481529060010190602001808311610db257829003601f168201915b50505050508152602001600282018054610de890613749565b80601f0160208091040260200160405190810160405280929190818152602001828054610e1490613749565b8015610e615780601f10610e3657610100808354040283529160200191610e61565b820191906000526020600020905b815481529060010190602001808311610e4457829003601f168201915b50505050508152602001600382018054610e7a90613749565b80601f0160208091040260200160405190810160405280929190818152602001828054610ea690613749565b8015610ef35780601f10610ec857610100808354040283529160200191610ef3565b820191906000526020600020905b815481529060010190602001808311610ed657829003601f168201915b50505050508152602001600482018054610f0c90613749565b80601f0160208091040260200160405190810160405280929190818152602001828054610f3890613749565b8015610f855780601f10610f5a57610100808354040283529160200191610f85565b820191906000526020600020905b815481529060010190602001808311610f6857829003601f168201915b50505050508152602001600582018054610f9e90613749565b80601f0160208091040260200160405190810160405280929190818152602001828054610fca90613749565b80156110175780601f10610fec57610100808354040283529160200191611017565b820191906000526020600020905b815481529060010190602001808311610ffa57829003601f168201915b5050505050815260200160068201805461103090613749565b80601f016020809104026020016040519081016040528092919081815260200182805461105c90613749565b80156110a95780601f1061107e576101008083540402835291602001916110a9565b820191906000526020600020905b81548152906001019060200180831161108c57829003601f168201915b505050505081526020016007820160009054906101000a900460ff16151515158152505090508060e00151156110e85782806110e4906138d7565b9350505b5080806110f4906138d7565b915050610c52565b5060008167ffffffffffffffff81111561111957611118612fb6565b5b60405190808252806020026020018201604052801561115257816020015b61113f612aad565b8152602001906001900390816111375790505b5090506000805b600080018054905081101561162257600080600101600080600001848154811061118657611185613879565b5b9060005260206000200160009054906101000a900473ffffffffffffffffffffffffffffffffffffffff1673ffffffffffffffffffffffffffffffffffffffff1673ffffffffffffffffffffffffffffffffffffffff168152602001908152602001600020604051806101000160405290816000820160009054906101000a900473ffffffffffffffffffffffffffffffffffffffff1673ffffffffffffffffffffffffffffffffffffffff1673ffffffffffffffffffffffffffffffffffffffff16815260200160018201805461125d90613749565b80601f016020809104026020016040519081016040528092919081815260200182805461128990613749565b80156112d65780601f106112ab576101008083540402835291602001916112d6565b820191906000526020600020905b8154815290600101906020018083116112b957829003601f168201915b505050505081526020016002820180546112ef90613749565b80601f016020809104026020016040519081016040528092919081815260200182805461131b90613749565b80156113685780601f1061133d57610100808354040283529160200191611368565b820191906000526020600020905b81548152906001019060200180831161134b57829003601f168201915b5050505050815260200160038201805461138190613749565b80601f01602080910402602001604051908101604052809291908181526020018280546113ad90613749565b80156113fa5780601f106113cf576101008083540402835291602001916113fa565b820191906000526020600020905b8154815290600101906020018083116113dd57829003601f168201915b5050505050815260200160048201805461141390613749565b80601f016020809104026020016040519081016040528092919081815260200182805461143f90613749565b801561148c5780601f106114615761010080835404028352916020019161148c565b820191906000526020600020905b81548152906001019060200180831161146f57829003601f168201915b505050505081526020016005820180546114a590613749565b80601f01602080910402602001604051908101604052809291908181526020018280546114d190613749565b801561151e5780601f106114f35761010080835404028352916020019161151e565b820191906000526020600020905b81548152906001019060200180831161150157829003601f168201915b5050505050815260200160068201805461153790613749565b80601f016020809104026020016040519081016040528092919081815260200182805461156390613749565b80156115b05780601f10611585576101008083540402835291602001916115b0565b820191906000526020600020905b81548152906001019060200180831161159357829003601f168201915b505050505081526020016007820160009054906101000a900460ff16151515158152505090508060e001511561160e57808484815181106115f4576115f3613879565b5b6020026020010181905250828061160a906138d7565b9350505b50808061161a906138d7565b915050611159565b5081935050505090565b6005818154811061163c57600080fd5b90600052602060002090600a020160009150905080600001805461165f90613749565b80601f016020809104026020016040519081016040528092919081815260200182805461168b90613749565b80156116d85780601f106116ad576101008083540402835291602001916116d8565b820191906000526020600020905b8154815290600101906020018083116116bb57829003601f168201915b5050505050908060010180546116ed90613749565b80601f016020809104026020016040519081016040528092919081815260200182805461171990613749565b80156117665780601f1061173b57610100808354040283529160200191611766565b820191906000526020600020905b81548152906001019060200180831161174957829003601f168201915b50505050509080600201805461177b90613749565b80601f01602080910402602001604051908101604052809291908181526020018280546117a790613749565b80156117f45780601f106117c9576101008083540402835291602001916117f4565b820191906000526020600020905b8154815290600101906020018083116117d757829003601f168201915b50505050509080600301805461180990613749565b80601f016020809104026020016040519081016040528092919081815260200182805461183590613749565b80156118825780601f1061185757610100808354040283529160200191611882565b820191906000526020600020905b81548152906001019060200180831161186557829003601f168201915b5050505050908060040154908060050154908060060180546118a390613749565b80601f01602080910402602001604051908101604052809291908181526020018280546118cf90613749565b801561191c5780601f106118f15761010080835404028352916020019161191c565b820191906000526020600020905b8154815290600101906020018083116118ff57829003601f168201915b50505050509080600701549080600801805461193790613749565b80601f016020809104026020016040519081016040528092919081815260200182805461196390613749565b80156119b05780601f10611985576101008083540402835291602001916119b0565b820191906000526020600020905b81548152906001019060200180831161199357829003601f168201915b5050505050908060090180546119c590613749565b80601f01602080910402602001604051908101604052809291908181526020018280546119f190613749565b8015611a3e5780601f10611a1357610100808354040283529160200191611a3e565b820191906000526020600020905b815481529060010190602001808311611a2157829003601f168201915b505050505090508a565b60606000805b6000800180549050811015611ef7576000806001016000806000018481548110611a7b57611a7a613879565b5b9060005260206000200160009054906101000a900473ffffffffffffffffffffffffffffffffffffffff1673ffffffffffffffffffffffffffffffffffffffff1673ffffffffffffffffffffffffffffffffffffffff168152602001908152602001600020604051806101000160405290816000820160009054906101000a900473ffffffffffffffffffffffffffffffffffffffff1673ffffffffffffffffffffffffffffffffffffffff1673ffffffffffffffffffffffffffffffffffffffff168152602001600182018054611b5290613749565b80601f0160208091040260200160405190810160405280929190818152602001828054611b7e90613749565b8015611bcb5780601f10611ba057610100808354040283529160200191611bcb565b820191906000526020600020905b815481529060010190602001808311611bae57829003601f168201915b50505050508152602001600282018054611be490613749565b80601f0160208091040260200160405190810160405280929190818152602001828054611c1090613749565b8015611c5d5780601f10611c3257610100808354040283529160200191611c5d565b820191906000526020600020905b815481529060010190602001808311611c4057829003601f168201915b50505050508152602001600382018054611c7690613749565b80601f0160208091040260200160405190810160405280929190818152602001828054611ca290613749565b8015611cef5780601f10611cc457610100808354040283529160200191611cef565b820191906000526020600020905b815481529060010190602001808311611cd257829003601f168201915b50505050508152602001600482018054611d0890613749565b80601f0160208091040260200160405190810160405280929190818152602001828054611d3490613749565b8015611d815780601f10611d5657610100808354040283529160200191611d81565b820191906000526020600020905b815481529060010190602001808311611d6457829003601f168201915b50505050508152602001600582018054611d9a90613749565b80601f0160208091040260200160405190810160405280929190818152602001828054611dc690613749565b8015611e135780601f10611de857610100808354040283529160200191611e13565b820191906000526020600020905b815481529060010190602001808311611df657829003601f168201915b50505050508152602001600682018054611e2c90613749565b80601f0160208091040260200160405190810160405280929190818152602001828054611e5890613749565b8015611ea55780601f10611e7a57610100808354040283529160200191611ea5565b820191906000526020600020905b815481529060010190602001808311611e8857829003601f168201915b505050505081526020016007820160009054906101000a900460ff16151515158152505090508060e00151611ee3578280611edf906138d7565b9350505b508080611eef906138d7565b915050611a4e565b5060008167ffffffffffffffff811115611f1457611f13612fb6565b5b604051908082528060200260200182016040528015611f4d57816020015b611f3a612aad565b815260200190600190039081611f325790505b5090506000805b600080018054905081101561241c576000806001016000806000018481548110611f8157611f80613879565b5b9060005260206000200160009054906101000a900473ffffffffffffffffffffffffffffffffffffffff1673ffffffffffffffffffffffffffffffffffffffff1673ffffffffffffffffffffffffffffffffffffffff168152602001908152602001600020604051806101000160405290816000820160009054906101000a900473ffffffffffffffffffffffffffffffffffffffff1673ffffffffffffffffffffffffffffffffffffffff1673ffffffffffffffffffffffffffffffffffffffff16815260200160018201805461205890613749565b80601f016020809104026020016040519081016040528092919081815260200182805461208490613749565b80156120d15780601f106120a6576101008083540402835291602001916120d1565b820191906000526020600020905b8154815290600101906020018083116120b457829003601f168201915b505050505081526020016002820180546120ea90613749565b80601f016020809104026020016040519081016040528092919081815260200182805461211690613749565b80156121635780601f1061213857610100808354040283529160200191612163565b820191906000526020600020905b81548152906001019060200180831161214657829003601f168201915b5050505050815260200160038201805461217c90613749565b80601f01602080910402602001604051908101604052809291908181526020018280546121a890613749565b80156121f55780601f106121ca576101008083540402835291602001916121f5565b820191906000526020600020905b8154815290600101906020018083116121d857829003601f168201915b5050505050815260200160048201805461220e90613749565b80601f016020809104026020016040519081016040528092919081815260200182805461223a90613749565b80156122875780601f1061225c57610100808354040283529160200191612287565b820191906000526020600020905b81548152906001019060200180831161226a57829003601f168201915b505050505081526020016005820180546122a090613749565b80601f01602080910402602001604051908101604052809291908181526020018280546122cc90613749565b80156123195780601f106122ee57610100808354040283529160200191612319565b820191906000526020600020905b8154815290600101906020018083116122fc57829003601f168201915b5050505050815260200160068201805461233290613749565b80601f016020809104026020016040519081016040528092919081815260200182805461235e90613749565b80156123ab5780601f10612380576101008083540402835291602001916123ab565b820191906000526020600020905b81548152906001019060200180831161238e57829003601f168201915b505050505081526020016007820160009054906101000a900460ff16151515158152505090508060e0015161240857808484815181106123ee576123ed613879565b5b60200260200101819052508280612404906138d7565b9350505b508080612414906138d7565b915050611f54565b5081935050505090565b600460009054906101000a900473ffffffffffffffffffffffffffffffffffffffff1673ffffffffffffffffffffffffffffffffffffffff163373ffffffffffffffffffffffffffffffffffffffff1614156124b7576040517f08c379a00000000000000000000000000000000000000000000000000000000081526004016124ae90613992565b60405180910390fd5b60056040518061014001604052808c81526020018b81526020018a81526020018981526020018881526020018781526020018681526020018581526020018481526020018381525090806001815401808255809150506001900390600052602060002090600a02016000909190919091506000820151816000019080519060200190612544929190612b0a565b506020820151816001019080519060200190612561929190612b0a565b50604082015181600201908051906020019061257e929190612b0a565b50606082015181600301908051906020019061259b929190612b0a565b506080820151816004015560a0820151816005015560c08201518160060190805190602001906125cc929190612b0a565b5060e082015181600701556101008201518160080190805190602001906125f4929190612b0a565b50610120820151816009019080519060200190612612929190612b0a565b5050507f2f888bcf760a49b8dae728396135b3c79b67fe136b12aa9c18966cbac61c1b216005600160058054905061264a91906139b2565b8154811061265b5761265a613879565b5b90600052602060002090600a02016040516126769190613bca565b60405180910390a150505050505050505050565b600060030160008373ffffffffffffffffffffffffffffffffffffffff1673ffffffffffffffffffffffffffffffffffffffff16815260200190815260200160002060009054906101000a900460ff161561283f5780600060010160008473ffffffffffffffffffffffffffffffffffffffff1673ffffffffffffffffffffffffffffffffffffffff16815260200190815260200160002060008201518160000160006101000a81548173ffffffffffffffffffffffffffffffffffffffff021916908373ffffffffffffffffffffffffffffffffffffffff1602179055506020820151816001019080519060200190612785929190612b0a565b5060408201518160020190805190602001906127a2929190612b0a565b5060608201518160030190805190602001906127bf929190612b0a565b5060808201518160040190805190602001906127dc929190612b0a565b5060a08201518160050190805190602001906127f9929190612b0a565b5060c0820151816006019080519060200190612816929190612b0a565b5060e08201518160070160006101000a81548160ff021916908315150217905550905050612aa9565b6001600060030160008473ffffffffffffffffffffffffffffffffffffffff1673ffffffffffffffffffffffffffffffffffffffff16815260200190815260200160002060006101000a81548160ff02191690831515021790555080600060010160008473ffffffffffffffffffffffffffffffffffffffff1673ffffffffffffffffffffffffffffffffffffffff16815260200190815260200160002060008201518160000160006101000a81548173ffffffffffffffffffffffffffffffffffffffff021916908373ffffffffffffffffffffffffffffffffffffffff1602179055506020820151816001019080519060200190612940929190612b0a565b50604082015181600201908051906020019061295d929190612b0a565b50606082015181600301908051906020019061297a929190612b0a565b506080820151816004019080519060200190612997929190612b0a565b5060a08201518160050190805190602001906129b4929190612b0a565b5060c08201518160060190805190602001906129d1929190612b0a565b5060e08201518160070160006101000a81548160ff0219169083151502179055509050506000800180549050600060020160008473ffffffffffffffffffffffffffffffffffffffff1673ffffffffffffffffffffffffffffffffffffffff1681526020019081526020016000208190555060008001829080600181540180825580915050600190039060005260206000200160009091909190916101000a81548173ffffffffffffffffffffffffffffffffffffffff021916908373ffffffffffffffffffffffffffffffffffffffff1602179055505b5050565b604051806101000160405280600073ffffffffffffffffffffffffffffffffffffffff1681526020016060815260200160608152602001606081526020016060815260200160608152602001606081526020016000151581525090565b828054612b1690613749565b90600052602060002090601f016020900481019282612b385760008555612b7f565b82601f10612b5157805160ff1916838001178555612b7f565b82800160010185558215612b7f579182015b82811115612b7e578251825591602001919060010190612b63565b5b509050612b8c9190612b90565b5090565b5b80821115612ba9576000816000905550600101612b91565b5090565b600081519050919050565b600082825260208201905092915050565b6000819050602082019050919050565b600081519050919050565b600082825260208201905092915050565b60005b83811015612c13578082015181840152602081019050612bf8565b83811115612c22576000848401525b50505050565b6000601f19601f8301169050919050565b6000612c4482612bd9565b612c4e8185612be4565b9350612c5e818560208601612bf5565b612c6781612c28565b840191505092915050565b6000819050919050565b612c8581612c72565b82525050565b6000610140830160008301518482036000860152612ca98282612c39565b91505060208301518482036020860152612cc38282612c39565b91505060408301518482036040860152612cdd8282612c39565b91505060608301518482036060860152612cf78282612c39565b9150506080830151612d0c6080860182612c7c565b5060a0830151612d1f60a0860182612c7c565b5060c083015184820360c0860152612d378282612c39565b91505060e0830151612d4c60e0860182612c7c565b50610100830151848203610100860152612d668282612c39565b915050610120830151848203610120860152612d828282612c39565b9150508091505092915050565b6000612d9b8383612c8b565b905092915050565b6000602082019050919050565b6000612dbb82612bad565b612dc58185612bb8565b935083602082028501612dd785612bc9565b8060005b85811015612e135784840389528151612df48582612d8f565b9450612dff83612da3565b925060208a01995050600181019050612ddb565b50829750879550505050505092915050565b60006020820190508181036000830152612e3f8184612db0565b905092915050565b600073ffffffffffffffffffffffffffffffffffffffff82169050919050565b6000612e7282612e47565b9050919050565b612e8281612e67565b82525050565b60008115159050919050565b612e9d81612e88565b82525050565b600061010083016000830151612ebc6000860182612e79565b5060208301518482036020860152612ed48282612c39565b91505060408301518482036040860152612eee8282612c39565b91505060608301518482036060860152612f088282612c39565b91505060808301518482036080860152612f228282612c39565b91505060a083015184820360a0860152612f3c8282612c39565b91505060c083015184820360c0860152612f568282612c39565b91505060e0830151612f6b60e0860182612e94565b508091505092915050565b60006020820190508181036000830152612f908184612ea3565b905092915050565b6000604051905090565b600080fd5b600080fd5b600080fd5b600080fd5b7f4e487b7100000000000000000000000000000000000000000000000000000000600052604160045260246000fd5b612fee82612c28565b810181811067ffffffffffffffff8211171561300d5761300c612fb6565b5b80604052505050565b6000613020612f98565b905061302c8282612fe5565b919050565b600067ffffffffffffffff82111561304c5761304b612fb6565b5b61305582612c28565b9050602081019050919050565b82818337600083830152505050565b600061308461307f84613031565b613016565b9050828152602081018484840111156130a05761309f612fb1565b5b6130ab848285613062565b509392505050565b600082601f8301126130c8576130c7612fac565b5b81356130d8848260208601613071565b91505092915050565b600080600080600060a086880312156130fd576130fc612fa2565b5b600086013567ffffffffffffffff81111561311b5761311a612fa7565b5b613127888289016130b3565b955050602086013567ffffffffffffffff81111561314857613147612fa7565b5b613154888289016130b3565b945050604086013567ffffffffffffffff81111561317557613174612fa7565b5b613181888289016130b3565b935050606086013567ffffffffffffffff8111156131a2576131a1612fa7565b5b6131ae888289016130b3565b925050608086013567ffffffffffffffff8111156131cf576131ce612fa7565b5b6131db888289016130b3565b9150509295509295909350565b6131f181612e67565b81146131fc57600080fd5b50565b60008135905061320e816131e8565b92915050565b60006020828403121561322a57613229612fa2565b5b6000613238848285016131ff565b91505092915050565b600081519050919050565b600082825260208201905092915050565b6000819050602082019050919050565b6000610100830160008301516132866000860182612e79565b506020830151848203602086015261329e8282612c39565b915050604083015184820360408601526132b88282612c39565b915050606083015184820360608601526132d28282612c39565b915050608083015184820360808601526132ec8282612c39565b91505060a083015184820360a08601526133068282612c39565b91505060c083015184820360c08601526133208282612c39565b91505060e083015161333560e0860182612e94565b508091505092915050565b600061334c838361326d565b905092915050565b6000602082019050919050565b600061336c82613241565b613376818561324c565b9350836020820285016133888561325d565b8060005b858110156133c457848403895281516133a58582613340565b94506133b083613354565b925060208a0199505060018101905061338c565b50829750879550505050505092915050565b600060208201905081810360008301526133f08184613361565b905092915050565b61340181612c72565b811461340c57600080fd5b50565b60008135905061341e816133f8565b92915050565b60006020828403121561343a57613439612fa2565b5b60006134488482850161340f565b91505092915050565b600082825260208201905092915050565b600061346d82612bd9565b6134778185613451565b9350613487818560208601612bf5565b61349081612c28565b840191505092915050565b6134a481612c72565b82525050565b60006101408201905081810360008301526134c5818d613462565b905081810360208301526134d9818c613462565b905081810360408301526134ed818b613462565b90508181036060830152613501818a613462565b9050613510608083018961349b565b61351d60a083018861349b565b81810360c083015261352f8187613462565b905061353e60e083018661349b565b8181036101008301526135518185613462565b90508181036101208301526135668184613462565b90509b9a5050505050505050505050565b6000806000806000806000806000806101408b8d03121561359b5761359a612fa2565b5b60008b013567ffffffffffffffff8111156135b9576135b8612fa7565b5b6135c58d828e016130b3565b9a505060208b013567ffffffffffffffff8111156135e6576135e5612fa7565b5b6135f28d828e016130b3565b99505060408b013567ffffffffffffffff81111561361357613612612fa7565b5b61361f8d828e016130b3565b98505060608b013567ffffffffffffffff8111156136405761363f612fa7565b5b61364c8d828e016130b3565b975050608061365d8d828e0161340f565b96505060a061366e8d828e0161340f565b95505060c08b013567ffffffffffffffff81111561368f5761368e612fa7565b5b61369b8d828e016130b3565b94505060e06136ac8d828e0161340f565b9350506101008b013567ffffffffffffffff8111156136ce576136cd612fa7565b5b6136da8d828e016130b3565b9250506101208b013567ffffffffffffffff8111156136fc576136fb612fa7565b5b6137088d828e016130b3565b9150509295989b9194979a5092959850565b7f4e487b7100000000000000000000000000000000000000000000000000000000600052602260045260246000fd5b6000600282049050600182168061376157607f821691505b602082108114156137755761377461371a565b5b50919050565b7f4f6e6c792061646d696e2063616e20766572696679204f7267616e697a61746960008201527f6f6e000000000000000000000000000000000000000000000000000000000000602082015250565b60006137d7602283613451565b91506137e28261377b565b604082019050919050565b60006020820190508181036000830152613806816137ca565b9050919050565b7f4f7267616e697a6174696f6e2075706461746520737563636573730000000000600082015250565b6000613843601b83613451565b915061384e8261380d565b602082019050919050565b6000602082019050818103600083015261387281613836565b9050919050565b7f4e487b7100000000000000000000000000000000000000000000000000000000600052603260045260246000fd5b7f4e487b7100000000000000000000000000000000000000000000000000000000600052601160045260246000fd5b60006138e282612c72565b91507fffffffffffffffffffffffffffffffffffffffffffffffffffffffffffffffff821415613915576139146138a8565b5b600182019050919050565b7f4f6e6c79204f7267616e697a6174696f6e732063616e20616464206e6577207060008201527f617469656e747300000000000000000000000000000000000000000000000000602082015250565b600061397c602783613451565b915061398782613920565b604082019050919050565b600060208201905081810360008301526139ab8161396f565b9050919050565b60006139bd82612c72565b91506139c883612c72565b9250828210156139db576139da6138a8565b5b828203905092915050565b60008190508160005260206000209050919050565b60008154613a0881613749565b613a128186612be4565b94506001821660008114613a2d5760018114613a3f57613a72565b60ff1983168652602086019350613a72565b613a48856139e6565b60005b83811015613a6a57815481890152600182019150602081019050613a4b565b808801955050505b50505092915050565b60008160001c9050919050565b6000819050919050565b6000613aa5613aa083613a7b565b613a88565b9050919050565b6000610140830160008084018583036000870152613aca83826139fb565b925050600184018583036020870152613ae383826139fb565b925050600284018583036040870152613afc83826139fb565b925050600384018583036060870152613b1583826139fb565b92505060048401549050613b2881613a92565b613b356080870182612c7c565b5060058401549050613b4681613a92565b613b5360a0870182612c7c565b506006840185830360c0870152613b6a83826139fb565b92505060078401549050613b7d81613a92565b613b8a60e0870182612c7c565b5060088401858303610100870152613ba283826139fb565b92505060098401858303610120870152613bbc83826139fb565b925050819250505092915050565b60006020820190508181036000830152613be48184613aac565b90509291505056fea264697066735822122035a2133ddccbc34a0f6b3d2451152bf37e324714dce939a5dbd8073ae606461664736f6c634300080a0033",
  "immutableReferences": {},
  "source": "// SPDX-License-Identifier: GPL-3.0\npragma solidity >=0.7.0 <0.9.0;\n\ncontract Org{\n    struct Organization{\n        address id;\n        string name;\n        string addr;\n        string email;\n        string con;\n        string typ;\n        string role;\n        bool verified;\n    }\n    struct OrgMap {\n        address[] keys;\n        mapping(address => Organization) values;\n        mapping(address => uint256) indexOf;\n        mapping(address => bool) inserted;\n    }\n    OrgMap private orgmap;\n    function OrgMapSet(address key, Organization memory val) private {\n        if (orgmap.inserted[key]) {\n            orgmap.values[key] = val;\n        } else {\n            orgmap.inserted[key] = true;\n            orgmap.values[key] = val;\n            orgmap.indexOf[key] = orgmap.keys.length;\n            orgmap.keys.push(key);\n        }\n    }\n    address admin;\n    struct Patient {\n    \n        string orgname;\n        string pid;\n        string patient_name;\n        string addr; \n        uint256 age;\n        uint256 mobno;\n        string email;\n        uint256 report_date;\n        string test_name;\n        string description;\n    }\n\n    Patient[] public patients;\n    event AddPatient(Patient _patient);\n\n    function addPatient(\n\n        string memory orgname,\n        string memory pid,\n        string memory patient_name,\n        string memory addr,\n        uint256 age,\n        uint256 mobno,\n        string memory email,\n        uint256 report_date,\n        string memory test_name,\n        string memory description\n    ) public {\n        require(msg.sender != admin, \"Only Organizations can add new patients\");\n        patients.push(\n            Patient({\n                \n                orgname:orgname,\n                pid:pid,\n                patient_name: patient_name,\n                addr:addr,\n                age:age,\n                mobno:mobno,\n                email:email,\n                report_date:report_date,\n                test_name:test_name,\n                description: description\n            })\n        );\n        emit AddPatient(patients[patients.length - 1]);\n    }\n\n    constructor(\n        string memory name,\n        string memory addr,\n        string memory email,\n        string memory con,\n        string memory typ\n    ) {\n        admin = msg.sender;\n        Organization memory org = Organization(\n            admin,\n            name,\n            addr,\n            email,\n            con,\n            typ,\n            \"admin\",\n            true\n        );\n        OrgMapSet(admin, org);\n    }\n    event Register(Organization _org);\n    function register(\n        string memory name,\n        string memory addr,\n        string memory email,\n        string memory con,\n        string memory typ\n    ) public {\n        address sender = msg.sender;\n        // TODO: check that a user is already exist or not\n        Organization memory org = Organization(\n            sender,\n            name,\n            addr,\n            email,\n            con,\n            typ,\n            \"user\",\n            false\n        );\n        OrgMapSet(sender, org);\n        emit Register(org);\n    }\n     function getOrg() public view returns (Organization memory) {\n        return orgmap.values[msg.sender];\n    }\n    function getUnverifiedOrganization() public view returns (Organization[] memory) {\n       \n        uint256 counter = 0;\n\n        for (uint256 i = 0; i < orgmap.keys.length; i++) {\n            Organization memory item = orgmap.values[orgmap.keys[i]];\n            if (!item.verified) counter++;\n        }\n\n        Organization[] memory orgs = new Organization[](counter);\n        uint256 j = 0;\n        for (uint256 i = 0; i < orgmap.keys.length; i++) {\n            Organization memory item = orgmap.values[orgmap.keys[i]];\n            if (!item.verified) {\n                orgs[j] = item;\n                j++;\n            }\n        }\n        return orgs;\n    }\n\n    event VerifyOrganization(string _message);\n\n    function verifyOrganization(address _address) public {\n        require(msg.sender == admin, \"Only admin can verify Organization\");\n        Organization storage org = orgmap.values[_address];\n        org.verified = true;\n        emit VerifyOrganization(\"Organization update success\");\n    }\n    function getVerifiedOrganization() public view returns (Organization[] memory) {\n        // TODO: Create a pagination type data return\n        // INFO: Resolve null value from the voters\n        uint256 counter = 0;\n\n        for (uint256 i = 0; i < orgmap.keys.length; i++) {\n            Organization memory item = orgmap.values[orgmap.keys[i]];\n            if (item.verified) counter++;\n        }\n\n        Organization[] memory orgs = new Organization[](counter);\n        uint256 j = 0;\n        for (uint256 i = 0; i < orgmap.keys.length; i++) {\n            Organization memory item = orgmap.values[orgmap.keys[i]];\n            if (item.verified) {\n                orgs[j] = item;\n                j++;\n            }\n        }\n        return orgs;\n    }\n\n    function getPatients() public view returns (Patient[] memory) {\n        return patients;\n    }\n}",
  "sourcePath": "D:\\codes\\fit-o-fine\\app\\contracts\\Org.sol",
  "compiler": {
    "name": "solc",
    "version": "0.8.10+commit.fc410830.Emscripten.clang"
  },
  "schemaVersion": "3.4.16",
  "updatedAt": "2024-01-28T15:45:17.095Z",
  "networkType": "ethereum",
  "devdoc": {
    "kind": "dev",
    "methods": {},
    "version": 1
  },
  "userdoc": {
    "kind": "user",
    "methods": {},
    "version": 1
  }
}